:020000040800F2
:1000000058080020B5010008BD010008BF01000824
:10001000C1010008C3010008C5010008000000007C
:10002000000000000000000000000000C701000800
:10003000C901000800000000CB0100089515000868
:10004000CF010008D10100089D2300080000000036
:1000500000000000D5010008D7010008D901000800
:10006000DB01000800000000DD010008DF010008DE
:10007000E101000800000000E3010008E5010008BC
:10008000E7010008E901000800000000EB0100089A
:10009000ED0100080000000000000000000000006A
:1000A000000000000000000000000000EF01000858
:1000B000F1010008F3010008F5010008F70100084C
:1000C00000F002F800F066F814A696E8000CB244BE
:1000D000B344DA4501D100F05DF8BAE80F000FA68D
:1000E00096E83000A5EB040504EB0607AAEB07042D
:1000F000A7F101074FEA15154FEA3414A4F10104E2
:10010000AC4201D300F046F813F0010F18BFFB1A00
:1001100043F0010300F001F8DBE7184780430000DB
:10012000A0430000103A24BF78C878C1FAD852071B
:1001300024BF30C830C144BF04680C607047000061
:10014000704700000023002400250026103A28BF35
:1001500078C1FBD8520728BF30C148BF0B60704739
:10016000662903F0FE87732900F07583002070472D
:100170001FB500F075FB04000020002103F048FCCF
:10018000401C60600020002103F058FCE0601FBDAF
:1001900010B510BD00F064FC1146FFF7E9FF02F056
:1001A000A3FA00F082FC03B4FFF7F2FF03BC00F0F7
:1001B000C5FC00001348804713480047FEE7FEE7F0
:1001C000FEE7FEE7FEE7FEE7FEE7FEE7FEE7FEE707
:1001D000FEE7FEE7FEE7FEE7FEE7FEE7FEE7FEE7F7
:1001E000FEE7FEE7FEE7FEE7FEE7FEE7FEE7FEE7E7
:1001F000FEE7FEE7FEE7FEE704480549054A064B31
:100200007047000011160008C100000858020020C5
:1002100058080020580400205804002010B5044657
:1002200000F0D4F80068005D000704D5DF2C02D090
:10023000A4F1200010BD204610BD00000FB41CB575
:10024000074B06AA7B4469460090059800F0D9FA4E
:100250000020694600F0E8FA1CBC5DF814FB0000C1
:10026000E105000070B50C460546012A05D0287846
:10027000800600D5EA69002302E0012305E05B1C4B
:10028000934202D2E05C0028F9D1A869E618C01AAE
:10029000A861286A184428622846AFF3008004E069
:1002A000D5E9012114F8010B9047B442F8D3284650
:1002B000AFF3008070BD2DE9F0474FF0000A89468A
:1002C0000446C0F820A02046E1688847002876D080
:1002D000252806D0D4E901219047206A401C2062DD
:1002E000F1E7E168204600258847C4F81CA00646CF
:1002F0000027C4F818A02A2E09D0304603F080FB4E
:1003000038B304EB8708303EC8F8186019E059F894
:10031000041B204604EB87029161E1688847012FA6
:10032000064618D1E069002820DA25F020051DE0F6
:10033000D8F8180000EB800006EB40003038C8F811
:1003400018002046E1688847064603F059FB00285C
:10035000EED1012F0AD02E2E08D12046E168884721
:100360007F1C0646022F45F02005C4DBA06900284B
:1003700003DA404245F00105A061E80701D025F00D
:100380001005B6B1A6F14100192802D8203645F46F
:1003900000654A463146204625604D46FFF7E0FE9F
:1003A00058B1012806D0ED1D25F0070000F108091D
:1003B00089E704E005F1040985E730468AE7206A09
:1003C000BDE8F087704770477047000010B500F037
:1003D00047FA001D10BD00BF393600002DE9FF4F60
:1003E0000C461E464FF0FF378BB0D2E90001DDF816
:1003F00060800A908A46C1F30A5505B93D4600213E
:1004000008464FF00000BAF1000F00F4400005DA92
:1004100000EB80004FF4400101EA50004FEA905990
:10042000B9F1010F00DDB9460A9850EA4A000ED032
:1004300044F61050A5F2FF3545432F14B8F1000FD4
:100440001ED07542291E1EDDC9F100021CE0B8F164
:10045000010F4FF0000001D0302103E0F24305E02E
:100460002154401CB042FBDB3046002200212154C5
:100470000B99C1F80880C1E900200FB0BDE8F08FEA
:10048000BD1B6D1CDEE74A4600DA694206A800F093
:1004900071FA06AB93E8070003AB83E80700504608
:1004A0000A9902F0D0FE8DE80700A0F500501F3831
:1004B00000900398002D0ADD42F21F014A460844CD
:1004C000002303A90390684603F03AF909E0A0F578
:1004D00000504A461F38002303A90390684603F0E2
:1004E00044F98DE807000004000C03D04FF0FF3002
:1004F000410800E01046B8F1000F03D0002200923E
:1005000015461EE0751E05D400F0AEF93032625576
:100510006D1EF9D5B3460122084302D000227F1C8C
:1005200004E02078302801D100227F1E002A09979C
:1005300084D01DE0112D07DA00F096F930326255B3
:100540006D1C50EA0102F5D1084302D00098C8B1F1
:100550000EE00021681E05E0235C625C63542254B7
:10056000401E491C8142F7DBAB46A81B401E099088
:10057000002004F80B000B98099AC0F80880C0E925
:10058000002B7AE711264FF0000857E72DE9F04FCE
:1005900088460446D21D22F0070191B0D1E900013E
:1005A000CDE90A0103F018FA02460B98C00F01D0FA
:1005B0002D2007E02068810701D52B2002E02021B3
:1005C00001EAC000032A099001D0072A05DB03468F
:1005D0004146204600F08EF90BE12078800601D5D7
:1005E000E06900E00620B8F1650F814606D0B8F159
:1005F000660F18D0B8F1670F70D131E00020B9F163
:10060000110F009001DB112301E009F101030AAA97
:1006100001A90CA8FFF7E2FEDDE90C70002609F144
:100620000105834647E001204B4600904FF000470C
:100630000AAA01A90CA8FFF7D1FEDDE90DB00C99BB
:100640005D46002610B909F101000D18B9EB05004F
:1006500003D4C0F1FF3609F10105A5EB09002BE039
:10066000B9F1010F01DA4FF001090020B9F1110FC2
:100670000090484601DD112300E003460AAA01A9C3
:100680000CA8FFF7ABFEDDE90C704D460026834653
:10069000207800070AD4AB4500DA5D4601A8012D99
:1006A00004DD411911F8011C302907D04F4502DA49
:1006B00017F1040F04DA012082460FE06D1EEEE709
:1006C000002F02DCED1B3E4403E0781CA84200DD55
:1006D0007D1CB81B00F1010A4FF00047207800078D
:1006E00003D4AA4501DB4FF0FF3A0021B7F1004FD8
:1006F0000DF143088DF8431024D002202B23002F46
:1007000001DA7F422D230A21021EA0F1010000DC44
:100710005FB197FBF1FC97FBF1F201FB1C7C1746E4
:100720000CF1300C08F801CDEEE7A8F101000370E0
:100730002188090501D5452100E06521A0F10108C6
:1007400000F8011C09980FA9A1EB0807FF1D00B1D3
:100750000120411901EBEA70A1693844081A401ED2
:10076000A0612078C00602D42046AFF3008009982B
:1007700028B1D4E901219047206A401C20622078EA
:10078000C00622D52046AFF300801EE0002E04DB19
:10079000B34502DD01A8805D00E03020D4E90121ED
:1007A0009047206A401C2062761CAAF101005FEA93
:1007B000000A0AD100F054F8C0680168405CD4E92E
:1007C00001219047206A401C2062281EA5F10105E6
:1007D000DCDC07E0D4E9012118F8010B9047206A1E
:1007E000401C2062381EA7F10107F3DC2046AFF35E
:1007F0000080032011B041E601694A1C02610878BB
:10080000704700B58FB0CDE9013100210591054950
:100810007944CDE9031011466846FFF74CFD0FB04F
:1008200000BD0000E5FFFFFF0A6802F8010B0A6047
:10083000704710B5436913B1AFF3008001E0FFF7D3
:1008400011FD012010BD127800F124010A70002270
:100850004A700122EDE711684FF0FF32E9E700002E
:10086000004870478000002030B5B0F10A0271F1F5
:1008700000034FEA900E4EEA817EB0EB0E0061EB72
:1008800091014FEA101E4EEA017E10EB0E0041EB83
:1008900011114FEA102E4EEA016E10EB0E0041EBE3
:1008A00011214FEA104E4EEA014E10EB0E0041EBC3
:1008B0001141401841F100014FEAD00040EA417077
:1008C0004FEAD1014FEA810444EA907410EB8005AD
:1008D00044EB01046D1944EB0404521BA3414FF097
:1008E000000348BF0A3200D530BD401C41F1000171
:1008F00030BD00002DE9F0411F4604460326016883
:10090000072A01F4006004DB08B116A505E016A56E
:1009100003E008B115A500E015A521F01000206046
:10092000A069C01EA0610FB1401EA0612046AFF3B8
:1009300000804FB1D4E9012138469047206A401C1D
:100940002062C01C206206E0206AFAE7D4E9012197
:1009500015F8010B9047761EF8D22046AFF30080C1
:10096000BDE8F0814E414E006E616E00494E46007A
:10097000696E66002DE9F047814616468AB0354813
:1009800078440DC88DE80D0032487844801C03ACD3
:100990000DC884E80D0041F69B300844372190FBD8
:1009A000F1F290FBF1F5A5F1800501FB12041B3C6F
:1009B00002D56442012000E00020DFF898A08046C4
:1009C0000027FA44AAF1BE0A0EE0E0070AD0324638
:1009D000684607EB470101230AEB810102F0C5FEDF
:1009E0008DE8070064107F1C002CEED1194F7F4466
:1009F000AE3F19E0E80715D007EB04100DF1180A17
:100A000090E80E008AE80E00C068F04201D1981903
:100A100008903246012306A903A802F0A6FE03AB04
:100A200083E807006D10641C002DE3D14FF0010333
:100A300032466946B8F1000F03A802D002F080FEEA
:100A400001E002F092FEC9E90001C9F808200AB0ED
:100A5000BDE8F08760380000004870476000002063
:100A60007546FFF7F9FFAE4605006946534620F08C
:100A70000700854618B020B5FFF7BEFBBDE8204053
:100A80004FF000064FF000074FF000084FF0000B4A
:100A9000AC46ACE8C009ACE8C009ACE8C009ACE8B9
:100AA000C00921F007018D46704710B50446AFF329
:100AB00000802046BDE81040FFF775BB4FF0013CB9
:100AC00050F8042B51F8043B9A4221D1A2EB0C03BD
:100AD000934313EACC1317D150F8042B51F8043B7D
:100AE0009A4215D1A2EB0C03934313EACC130BD11A
:100AF00050F8042B51F8043B9A4209D1A2EB0C03A5
:100B0000934313EACC13DBD04FF00000704700BFD3
:100B1000D01A01BAB1FA81F101F0180122FA01F0FC
:100B2000CB40DBB2C0B2C01AC1F120012CFA01F3F4
:100B3000D11A914311EAC311E6D170470149182037
:100B4000ABBEFEE726000200704700002DE9F04131
:100B500086B000244FF0A8700121C4F20A040127D6
:100B600000F0A6FC1C20C4F20200016803AE41F4B0
:100B700000510160304600F08DFB40F20020C0F2D1
:100B80000210CDF81300602004F50035ADF80C001C
:100B9000284631468DF80E7000F0DCFA0420ADF8DE
:100BA0000C0002204FF000088DF814002846314652
:100BB0008DF80E8000F0CEFA1020ADF80C004FF446
:100BC000007004F58035ADF81400284631468DF8E4
:100BD0000E708DF8167000F0BDFA2846102100F056
:100BE0004FFB0A2001F09AFC2846102100F04EFB32
:100BF0000A2001F093FC204600F096FC20460021DC
:100C000000F062FC0DF10206304600F0B9FC8020D5
:100C1000ADF808001020C0F2007001902046314667
:100C20008DF80A8000F090FC2046012100F070FC55
:100C30000A2001F073FC2846102100F027FB0A204F
:100C400001F06CFC2846102100F01AFB204601211F
:100C500000F074FC0028F9D02046802100F08EFCC2
:100C60002046042100F06AFC0028F9D0204600F05C
:100C700081FC00BF2046012100F060FC0028F9D073
:100C80002046C12100F07AFC2046042100F056FCE9
:100C90000028F9D0204600F06DFC2846102100F015
:100CA000F5FA0A2001F03AFC2846102100F0E8FA93
:100CB0002046012100F042FC0028F9D02046002106
:100CC00000F05CFC2046042100F038FC0028F9D03C
:100CD000204600F04FFC00BF2046012100F02EFC12
:100CE0000028F9D02046002100F048FC20460421CD
:100CF00000F024FC0028F9D0204600F03BFC2846F8
:100D0000102100F0C3FA2846102100F0B9FA00BF04
:100D10002046012100F012FC0028F9D020460021D5
:100D200000F02CFC2046042100F008FC0028F9D03B
:100D3000204600F01FFC00BF2046012100F0FEFB12
:100D40000028F9D02046002100F018FC204604219C
:100D500000F0F4FB0028F9D0204600F00BFC06461A
:100D60002846102100F092FA2846102100F088FA57
:100D70002046012100F0E2FB0028F9D02046802126
:100D800000F0FCFB2046042100F0D8FB0028F9D03D
:100D9000204600F0EFFB00BF2046012100F0CEFB13
:100DA0000028F9D046F00400C1B2204600F0E6FB6E
:100DB0002046042100F0C2FB0028F9D0204600F0B4
:100DC000D9FB2846102100F061FA06B0BDE8F08199
:100DD00001281CBF0020704770B50025C4F20A0529
:100DE00005F580342046102100F04AFA28460121FA
:100DF00000F0A4FB0028F9D02846002100F0BEFB3B
:100E00002846042100F09AFB0028F9D0284600F07B
:100E1000B1FB00BF2846012100F090FB0028F9D06B
:100E20002846002100F0AAFB2846042100F086FB9A
:100E30000028F9D0284600F09DFB064620461021E8
:100E400000F024FA2046102100F01AFA2846012169
:100E500000F074FB0028F9D02846802100F08EFBBA
:100E60002846042100F06AFB0028F9D0284600F04B
:100E700081FB00BF2846012100F060FB0028F9D06B
:100E800046F00400C1B2284600F078FB2846042151
:100E900000F054FB0028F9D0284600F06BFB2046F8
:100EA000102100F0F3F92046102100F0E9F900BF0D
:100EB0002846012100F042FB0028F9D02846802175
:100EC00000F05CFB2846042100F038FB0028F9D034
:100ED000284600F04FFB00BF2846012100F02EFB02
:100EE0000028F9D046F08400C1B2284600F046FB45
:100EF0002846042100F022FB0028F9D0284600F003
:100F000039FB2046102100F0C1F90A2001F006FB50
:100F10002046102100F0B4F92846012100F00EFB14
:100F20000028F9D02846012100F028FB284604219A
:100F300000F004FB0028F9D0284600F01BFB00BF9E
:100F40002846012100F0FAFA0028F9D028460021AD
:100F500000F014FB2846042100F0F0FA0028F9D034
:100F6000284600F007FB06462846012100F0E6FA75
:100F70000028F9D02846002100F000FB2846042173
:100F800000F0DCFA0028F9D0284600F0F3FA054614
:100F90002046102100F07AF9E8B240EA062080B23B
:100FA000400870BD70B50025C4F20A05FFF710FFB8
:100FB00005F5803604463046102100F061F900BF87
:100FC0002846012100F0BAFA0028F9D02846072166
:100FD00000F0D4FA2846042100F0B0FA0028F9D035
:100FE000284600F0C7FA00BF2846012100F0A6FA03
:100FF0000028F9D02846002100F0C0FA2846042134
:1010000000F09CFA0028F9D0284600F0B3FA054613
:101010003046102100F03AF92AA001F01DFFEEB28F
:10102000304601F065FF304601F0C2FF29A001F013
:1010300013FF02F0E3F846B1E80724D1A80727D44C
:1010400068072AD428072DD434E06CB3204602F078
:10105000CBFE0021C4F2D73102F042FF4FF06051C5
:1010600002F03EFF0021CCF2C82102F02FFD41F634
:10107000B861C3F6C56102F0C1FD0021CCF2A00148
:1010800002F024FD70BD14A001F0E6FEA807D7D53C
:101090001AA001F0E1FE6807D4D521A001F0DCFE22
:1010A000280707D525A003E044F28320C0F60000FE
:1010B00001F0D2FE02F0A2F84CF20000CCF279402E
:1010C00070BD00BF524157204641554C54203D2031
:1010D000307800000D0A0000202D3E205254444973
:1010E0004E2D203E20302E3835C39756424941536D
:1010F00020286F70656E290D0A000000202D3E200B
:10110000525444494E2D203C20302E3835C397563A
:1011100042494153202873686F7274290D0A0000F8
:10112000202D3E20524546494E2D203E20302E385F
:1011300035C39756424941530D0A0000202D3E20E9
:101140004F7665722F756E646572766F6C74616729
:10115000650D0A002DE9F04F87B04568D0F808907A
:10116000C368D0F810A04769D0F818B0C669B1F8C4
:1011700000E0BEF1000F68D00693CDE9047901903C
:10118000012703234FF0011200244FF000094FF014
:10119000000C7046CDF800E009E000BF7F009B0026
:1011A00052000CF1010C400804F1020445D05FEA42
:1011B000C07EF3D003968E78BD4306FA0CF6354315
:1011C00002950D7A059EA5409E43354305958D7A7F
:1011D000069E91F803E0BE4305FA0CF5D84691F857
:1011E00004B035430CF1100606952AEA020A0EFAFD
:1011F00006F545EA0A0E0BFA0CF54EEA050A91F8D7
:1012000005B0049D49EA030925EA020E0BFA06F52A
:101210008E7945EA0E0506FA0CF62E4304964E7AB0
:1012200028EA0305A64046EA050BCE79039D06FA97
:101230000CF6BD432E43029DB0E76FEA0902069B00
:10124000DDE90479DDE900E001E04FF0FF324168BB
:1012500021EA0E014160816811408160C16821EA84
:101260000E01C160C0F810A0C0F818B04761C66197
:10127000C360C0F80890456007B0BDE8F08F00007B
:10128000026822EA01010160704700000268114310
:10129000016070474FF6FF7101800021C0F8021015
:1012A000C0F80610817270478821C4F2402108609E
:1012B000704700000422C4F20202936823F0030383
:1012C0001843906013688C2023F4706343EA012173
:1012D000C4F24020116050F8041C002908BF704778
:1012E00001210160002101607047000081B00020F1
:1012F000C4F20200002100910168009A01320092BC
:10130000009A520A022A02D811F00201F4D00068B1
:10131000C0F3400001B0704740F28811C4F2402190
:10132000086070470C21C4F202010A6822F0F00242
:1013300042EA0010086070470C21C4F202010A68FA
:1013400022F4407210430860704700002DE9F0411C
:101350000C21C4F202010A680A6840F6001CC0F2BF
:101360003D0C0E6841F20023D207E046C0F27A033A
:1013700004BF41F20028C0F27A087607C64606D5B7
:1013800051F8086CC6F30326013606FB08FE0D680B
:10139000C5F301251C46DFE805F012020D100C68AC
:1013A000240674460BD50C68C4F3021401342EFADB
:1013B00004F404E04FF4004401E049F640440460C2
:1013C0004C684C684D68E407644608BF1C466D07CE
:1013D000264606D551F8085CC5F30315013505FB13
:1013E00004F64D68C5F3001526FA05F54560CD688D
:1013F000C5F302172D061D4648BF2CFA07F5C56038
:10140000CF6807F007023F0748BF2CFA02F30361D9
:101410008A6802F00303DFE803F007020406A0462F
:1014200002E0F04600E0B0468A684FF40043C2F3A1
:101430000116DFE806F00802050749F6404302E01E
:10144000434600E02B4689680A05C1F302210131B9
:1014500001EAE27123FA01F18160BDE8F081000048
:101460000821C4F202010A68012822F003020A607E
:1014700003D0022818BF704703200A681043086091
:101480007047000081B00020C4F2020000210091EA
:101490000168009A01320092009A520A022A02D888
:1014A00011F00401F4D00068C0F3800001B070476F
:1014B000002940F21C01C4F202010A680CBF22EAB2
:1014C000000010430860704740F22C0CC4F2020C7C
:1014D0000022DCF80030C4F20A0290420CD0002254
:1014E000C4F2040290420FD123F0FF00084440F000
:1014F0008073CCF800307047FF20CFF6FF501840C3
:1015000040EA012000F10073CCF800307047000081
:1015100042684FF6FD7C42F00203002908BF02EA50
:101520000C034360704700000021016041600161CD
:10153000416141620321016270470000C0680840B8
:1015400018BF01207047000010B54A8802610A8860
:101550008B79CC7943EA02220B7A91F805E0224498
:101560001A44724491F804C00260497A61444160AF
:1015700010BD0000806880B2704700008160704735
:101580004FF4E0614160002101814FF400310160BE
:101590007047000040F2AC10C2F200000168013157
:1015A000016070470C20C4F202000168016840F637
:1015B0000012C9070168C0F23D0241F2002C04BFCD
:1015C00041F20022C0F27A024907C0F27A0C05D536
:1015D00050F8083CC3F3032301335A430368C3F3B1
:1015E0000123DFE803F00E02090C0068C0F30310CA
:1015F0000130B2FBF0FC04E04FF4004C01E049F68E
:10160000404C40F20000C2F20000C0F800C0704739
:1016100040F200014EF608520C20C0F60001CEF256
:101620000002C4F20200116010210161002101607A
:1016300040F8081C40F8041C41608160C1604161B1
:101640008161C16101620168016840F60012C90749
:101650000168C0F23D0241F2002C04BF41F20022B9
:10166000C0F27A024907C0F27A0C05D550F8083C5E
:10167000C3F3032301335A430368C3F30123DFE8B1
:1016800003F00E02090C0068C0F303100130B2FB36
:10169000F0FC04E04FF4004C01E049F6404C40F20D
:1016A0000000C2F20000C0F800C0704740F2280CF1
:1016B000C4F2020C48F20002DCF80030C4F203026B
:1016C00090420CD00022C4F2030290420FD123F0CA
:1016D000FF00084440F08073CCF800307047FF20D2
:1016E000CFF6FF50184040EA012000F10073CCF81B
:1016F00000307047026B4FF6FE7C42F00103002978
:1017000008BF02EA0C03036370470000B0B586B05F
:101710000D4689890446016301A8FFF717FE2821B9
:10172000C4F2020148F2000201980968C4F20302FF
:10173000944207D00022C4F20302944205D101F082
:10174000070101E0C1F30221C8402A689108B0FBFB
:10175000F1F18000B0FBF1F0801AC001B0FBF2F0B3
:10176000033810F1050F02D2002006B0B0BD01F021
:101770003F0089096162A062A888E9886A890843F4
:10178000298908431043E062012006B0B0BD000083
:101790004FF416516022002380E80E004FF4407190
:1017A000818170470421C4F20201CA68037840783D
:1017B0001A4342F48272CA600A6842EA001040F09A
:1017C0000100086051F8040CC007FBD0704700000E
:1017D000B0B540F2D804C2F200046078E588212850
:1017E00010D0202827D1072D23D140F2C00141F687
:1017F0006903C2F20001C0F600030020072200F0D6
:101800003FFD19E0072D14D1A08840F2C001C2F2BB
:10181000000100F06FF878B940F2C00141F665238D
:10182000C2F20001C0F600030020072200F008FD0C
:1018300002E0022000E0012050EA050118BFB0BD1F
:1018400094F90000B0F1FF3F06DD002000210022E6
:10185000002300F0F5FCB0BD002000210022002391
:1018600000F00EFDB0BD000040F2D802C2F200024E
:101870005378202B0AD110B592880446104600F008
:10188000C3F801462046BDE8104000E002210029CF
:101890001CBF0846704700210022002300F0D0BC86
:1018A00001060FD0012000210023002B08BF704744
:1018B00041F66523C0F600030020944538BF624618
:1018C00000F0BEBC000A01280AD00228EAD140F28A
:1018D0000401002001234FF0430CC2F20001E4E7B1
:1018E00040F24701002001234FF0120CC2F2000128
:1018F000DBE700004FF4E130086000200822888018
:101900008A71704740F2CC03C2F20003C3E90001C0
:1019100000201881B2FA82F040094102002059816A
:101920007047000080B50846114600F021F80028F5
:1019300040F2CC00C2F200001CBF4FF400714181A4
:10194000418900291CBF002080BDD0E9001241F66A
:101950002513C0F600030320BDE8804000F090BCD2
:1019600040F2CC01C2F20001002200200A8170473F
:1019700029B1007840F2B111C2F2000108700020D4
:101980007047000010B500F0E3F8002818BF10BD44
:10199000044601200521002200F072FA02200521F0
:1019A000002200F06DFA03200121002200F068FA05
:1019B00040F2CC01C2F200014A89204602B110BDBA
:1019C00006C941F62513C0F600030320BDE8104008
:1019D00000F056BC40F2CC0CC2F2000CBCF808304F
:1019E000002B1CBF1846704780B54FF4007E41F6AF
:1019F00061130A460146C0F600030120ACF808E076
:101A0000BDE8804000F01CBC00207047F0B581B0FC
:101A100002284FF0010608BF00291FD140F2F00054
:101A2000D4B2C2F200002C2104FB01070225787E0B
:101A3000C0F2080508B1012005E0B87E00280CBFFF
:101A40004FF400250120387000261F207E7000F022
:101A500047FD204629463E7600F010FD304601B095
:101A6000F0BD000070B5044640F2F000C2F2000084
:101A70002C2104FB010561430122002642521F2054
:101A80002E62C5E90166C5E903666A7600F028FDA5
:101A90000221C0F2080120462E7600F0EFFC002063
:101AA00070BD0000B0B50C46FFF77CFE00F0B0FC46
:101AB0004FF4803000F0C4FC206800F0C1FCD4E991
:101AC0000101084340F0010000F0CCFC40F2F005B9
:101AD000C2F200050024002005212C80C5E9014444
:101AE000C5E903446C612C76C5E90744C5E909449E
:101AF00000F0C4FC40F2D800C2F20000C5E9044086
:101B000041F6AD30C0F6000068620120A87628805A
:101B10001F20C5E9024400F0E3FC0221C0F20801E5
:101B200000202C7600F0AAFC40F2E001C2F2000195
:101B300000200C708C60B0BD80B50C2000F080FCE3
:101B400040F2E001C2F20001022200200A7080BDD2
:101B500040F2E001C2F20001032200200A70704747
:101B600002284FF0010008BF002900D0704710067E
:101B700004BF01207047B0B540F2F000C2F200008F
:101B8000D4B22C2104FB0105614340F205124252FC
:101B90001F2000F0A5FC0020287620460A2100F036
:101BA0006DFC0020BDE8B040704700002DE9F04317
:101BB00081B091F90060C6F341120125DFE802F01F
:101BC000023F3B3A06F01F03032B33D84F78B1F89E
:101BD00006800C2F00F2D780B1F802C08A884FF03F
:101BE00000090125DFE817F00D005B00CF00710050
:101BF000CF008B004300FC0097003000B4004C0085
:101C0000FC00B6F1FF3F00F3EB8040F2E007C2F2C8
:101C100000073F78042F07D1012B00F0E180022B51
:101C200002D1032A00F2DC800E46022B80F0B7803E
:101C30000021BEE00225284601B0BDE8F08301B0D6
:101C4000BDE8F043FFF7C4BDBCF1000F00F09F807A
:101C5000BCF1010518BF0125BCF1010F40F0C080A7
:101C600040F2E002C2F2000205231370B8E006461B
:101C700060460C4611464246FFF712FE214639E007
:101C800040F2E003C2F200031B78042B00F0A880AE
:101C900042EA0C0295B2002D18BF0125A0E040F2E7
:101CA000E007C2F200073F78042F07D1012B00F0B4
:101CB0009780022B02D1032A00F292800646184632
:101CC0000D466146FFF7A2FE13E040F2E007C2F2C4
:101CD00000073F78042F06D1012B00F08180022BF2
:101CE00001D1032A7CD8064618460D466146FFF707
:101CF00037FF2946054630464FF0000970E040F2B4
:101D0000E002C2F2000241F65D69C2F808C0C0F606
:101D10000009002564E040F2E002C2F200021278FD
:101D20000D46131F40F2C80218BF0123C2F2000281
:101D3000137041F66523C0F60003114601220446E4
:101D400000F07EFA2946204600254FF0000947E0C2
:101D500040F2E002C2F200021278042A40D040F2BF
:101D6000C802C2F2000241F6652382F80090C0F674
:101D700000030D4611460122044600F061FA29468F
:101D8000204600252CE04FF00009022528E040F213
:101D9000E002C2F2000204231370002520E0022BAF
:101DA0000CD140F2F001C2F200012C2302FB03111E
:101DB000497840F2C802C2F20002117040F2C80134
:101DC00041F66523C2F200010025C0F6000302229D
:101DD0004D70044600F034FA20464FF000093146B9
:101DE00045EA080212047FF426AF40F2F00691F9AA
:101DF0000010C2F200062C2700FB0764B1F1FF3F80
:101E000013DDA17E0025402200294FF00201C4E924
:101E10000155C4E90352C4F81C904FF0020608BFF4
:101E2000012100F04FFA267005E700250121C4E9E1
:101E30000155C4E90355C4F8209061762180044619
:101E40001F2000F04DFB04FB076002210576C0F265
:101E50000801204600F012FBEDE6000010B540F24C
:101E6000E004C2F20004A06800F0F6FAA0680421C1
:101E700000284FF0000008BF0321217010BD0000B2
:101E800010B540F2F00CC2F2000C4FF02C0E00FB2B
:101E90000EC300FB0EFE0024C3E90144C3E9034462
:101EA0005C61C3E90744C3E909422CF80E401C7683
:101EB00000F0E4FA002010BD2DE9F04F85B00D468A
:101EC000044600F055FA0490204600F059FA00F05C
:101ED00003000390204600F033FA40F2F001C2F212
:101EE00000012C2204FB0217E90782461CBF0120D7
:101EF000387607F1180B381D4FF000094FF0000835
:101F000002900CE0387800284FD04FF0000800BF56
:101F1000B8F1000F4FF00108484600F08D81387885
:101F20000528F5D8DFE810F0880106004A006400B3
:101F30001F0095005FEA8A70EAD4387E0028E7D057
:101F40000398002800F043810398022840F046815E
:101F5000787E002800F039810320387000207876E0
:101F60004FF00108D4E7387E0028CED0204600F09C
:101F7000F7F9082840F09F80002500BF204600F0B8
:101F8000E7F9796948550135082DF7D12046012137
:101F900000F082FA79697A6A2046904781460028E3
:101FA00040F0A88038780428AFD1787E002800F06F
:101FB000298102250120C0F208052EE15FEA8A701E
:101FC0005ED4387E00285BD00398012858D104984D
:101FD00010F0400054D03969D7E9022008449042FB
:101FE000F86080F08F802046012100F06BF98FE7C8
:101FF0005FEA8A703FF58CAF387E00283FF488AFE7
:10200000204600F0ADF9804680B1C8F100064FF0DF
:10201000FF3500BF204600F09BF97968FA6811444B
:1020200029440135721901324870F3D1204601214B
:1020300000F032FAD7E9020101EB08028242FA60AD
:102040004CD21F2000F04CFA4FF000088BF80080B3
:1020500099E05FEA8A703FF55BAF7878012840F03D
:102060009980002C3FF454AF40F2051038801F20B7
:1020700000F036FA00208BF8000020460A21D8E054
:10208000049800073FF444AFBE6A002038702EB1B8
:10209000DDE9032120465346B0478146B9F1000FE0
:1020A0003BD13878CDF804B0DDF808B0002844D032
:1020B000DDF804B02CE72046012100F0EDF9B87EF0
:1020C0004FF0000800280FBF0025052038800A25A2
:1020D0001F2000F005FA8BF800808CE03B6A00209E
:1020E00038701BB17968204698478146B9F1000FD6
:1020F0003FF408AFB87E4FF00008E0B105200A2594
:1021000038808FE0FB69002038701BB17968204669
:1021100098478146B9F1000F38D0B87E18B1052034
:102120000A25388000E000251F2000F0D9F90020A2
:102130008BF800007BE0002574E002203870204618
:10214000012100F0B9F9DBF80C20DBE901100244B1
:102150008A4238BF114688420DD24D42461E00BF0A
:10216000DBF8000030444178204600F09DF901364C
:10217000A8190130F4D11F2000F0B2F9DDF804B045
:1021800000208BF800002046022152E03878002819
:102190007FF4BEAE787E20B102250120C0F2080592
:1021A0000AE0B87E4FF400250221002818BF012064
:1021B000C0F2080118BF0D46387000261F207E703F
:1021C00000F08EF98BF8006031E0039830B9B87EEA
:1021D00020B1042038704FF0010899E6B87E00283D
:1021E0000FBF0025052038800A251F2000F078F950
:1021F00000208BF800002046294600F03FF94FF000
:10220000010985E6B87E4FF400250221002818BF99
:102210000120C0F2080118BF0D464FF000083870C9
:1022200087F801801F2000F05BF98BF800802046C2
:10223000294600F023F96BE680B205B0BDE8F08FC7
:102240002DE9F04140F2F008C2F200082C2400FB16
:1022500004854FF0400CAE7E05F1040E00278EE899
:10226000861002214443EB610225002E08BF0121A4
:1022700000F028F8002008F80450BDE8F0810000C4
:1022800070B540F2F00C0446C2F2000C2C2004FBA6
:1022900000C5604305F1040E00268EE846000121CA
:1022A0002CF800101F202E612B62697600F018F9BF
:1022B0000221C0F2080120462E7600F0DFF800204F
:1022C00070BD00002DE9F0410D460121044600F0EB
:1022D000F3F8022D05D0012D07D1204600F0A6F815
:1022E00003E02046042100F0C9F840F2F000C2F2F9
:1022F00000002C2104FB0108D8F81020D8E90210B6
:1023000002448A4238BF114688420DD208F10406C1
:102310004F42451E306828444178204600F0C4F8FA
:10232000013578190130F5D11F2000F0D9F80022CD
:102330002046022188F81820BDE8F04100F09EB840
:1023400040F200110001C4F201010858704700007A
:1023500040F28011C001C4F201010858704700002A
:1023600040F28C11C001C4F201010858704700000E
:1023700040F204110001C4F2010108587047000046
:1023800040F208110001C4F2010108587047000032
:1023900040F24810C4F2010000687047F0B581B007
:1023A0004EF20015CEF200050420C5F88000BFF300
:1023B0004F8F40F2EC06BFF36F8FC2F20006306819
:1023C00008B101B0F0BD01203060FFF7E1FF044625
:1023D00040070AD540F2E000C2F20000032101707C
:1023E00000218160002000F037F80027F8B2214674
:1023F000FFF762FD0137042FF8D124F0010000F04F
:102400006FF8002030600420286001B0F0BD0000AB
:1024100040F28030C4F20100016841F00201016025
:10242000016821F0020101607047000040F20011D4
:102430000001C4F201010A5882F004020A507047F8
:1024400040F28031C4F201010A6883B21A4322EAE1
:10245000104008607047000040F25011C4F20101C2
:102460000860704740F24011C4F201010A6883B26B
:102470001A4322EA104008607047000040F2001C36
:102480000001C4F2010C5CF800308AB21A4322EA5F
:1024900011414CF80010704740F29012C001C4F294
:1024A000010211507047000040F2C012C001C4F296
:1024B000010211507047000040F2D012C001C4F276
:1024C000010211507047000040F24C11C4F20101AA
:1024D0000A6883B21A4322EA10400860704700007D
:1024E00040F24811C4F2010108607047B0B5002401
:1024F0000325C4F20B0400BF20460F21FEF7C6FEE1
:10250000C82000F00BF820460F21FEF7B9FEC820C6
:1025100000F004F8013DEFD1B0BD000040F2AC1175
:10252000C2F200010A6800BF0B689B1A8342FBD30A
:102530007047000010B50120FEF792FFFEF7A2FFE2
:10254000012839D102200921FEF7B4FE0120FEF74F
:10255000ABFEFEF7CBFE012830D100200024FEF7B1
:10256000E1FE0120FEF7D8FE4FF48070FEF7E4FE96
:10257000FFF718F840F20000C2F20000006844F6CD
:10258000D351C1F26201A0FB01014FF0FF3000EB1B
:102590009110B4EB106F18BF10BD4EF21001CEF2C7
:1025A000000148604EF62350CEF20000E022027097
:1025B00007208C60086010BDFEE700BFFEE700004A
:1025C000B0B584B04FF4800001210125FEF770FF03
:1025D00001AC2046FEF75EFE0F20ADF804004FF47C
:1025E0008070ADF80C000020C4F20B0021468DF87D
:1025F00006508DF80E50FEF7ADFD04B0B0BD0000E2
:1026000070B588B08020C0F2001001210125FEF7CE
:102610004FFF05AC2046FEF73DFE03208DF81E500F
:1026200048F20005ADF8140040F20230C4F2030590
:102630000026ADF81C0005F5082021468DF816602F
:10264000FEF788FD28460021FFF730F801AC204650
:10265000FFF79EF84FF4E13001906020CDE90206CB
:1026600028462146FFF752F828460121FFF742F895
:1026700008B070BD70B584B00020ADF80E0040F613
:102680000330ADF80E001020202100250290CDE986
:10269000000104200121C4F20B050426FEF708FF07
:1026A0000DF10E042046FFF77DF869462046FFF73E
:1026B000F9F91F20FFF708FFFFF73EFAFFF762F96D
:1026C0004EF20010CEF2000006600324286880F06D
:1026D000010028609620FFF721FF013CF6D164201D
:1026E000FFF71CFF04B070BDA6B040F2B210C2F2FA
:1026F000000001210122FFF705F9FFF71BFFFFF79B
:10270000B9FFFFF75DFFFFF77BFFC820FFF706FF6C
:10271000FEF71CFA40F20000C2F20000006844F626
:10272000D357C1F26207A0FB07014FF0FF3000EB67
:1027300091110020B0EB116F0DD14EF21002CEF2CC
:10274000000251604EF62351CEF20001E0230B70DF
:1027500090600720106048F2000BC4F2030B00F0F9
:102760001BFDC9A000F078FB00F048FDCBA000F0F5
:1027700073FB00F043FD40F2AC1140F2B019C2F21D
:102780000001C2F20009D1F80080D1F800A099F848
:102790000000002874D099F80000002800F05F8144
:1027A00044F28840C0F60000016840F2B11605917D
:1027B000416840F2A0140491816840F2A41803918A
:1027C000C168007C40F2AC17C2F20006C2F20004FD
:1027D000C2F2000840F6B83906AD4FF0000AC2F266
:1027E0000007029101901AE0384601F043F90B46C8
:1027F00044F2712102462846C0F60001FDF71EFD95
:10280000284600F029FB00F0F9FC40F2AC17C2F2B8
:1028100000073868C8F800000A20FFF77FFEDBF8E1
:102820001800C00604D4DBF80000C0B200F074F950
:10283000307820B1307886F800A000F06DF920786B
:102840000028E9D03868D8F80010401A4845E3D38A
:102850000120FEF7A7FB48F20001CCF277410746C2
:1028600001F0ABF90028BFD10598069004980790B5
:10287000039808900298099001988DF82800BFE706
:102880004DF2C046C0F2010608EB0600CDE9048017
:102890001CE0284601F0EEF80B4606AC44F261213C
:1028A00002462046C0F60001FDF7C8FC204600F0B5
:1028B000D3FA00F0A3FC00F0F1FB99F8000040F21D
:1028C000AC110028C2F200017FF465AF0868A0EBEC
:1028D0000800B042BFF45FAF086841F28831A0EB56
:1028E0000A00884216D340F2AC14C2F200042068F9
:1028F0000599081AA0FB070171A08D0900F0ACFA38
:10290000284600F0BFFA73A000F0A6FA00F076FCAB
:10291000D4F800A0DBF81800C00652D4DBF80000A1
:1029200000F0DF0048284CD1012089F8000044F273
:10293000FC10C0F6000000F08FFA00F05FFCFFF71B
:10294000D5FD44F24C20C0F6000000F085FA00F0FE
:1029500055FC0120FEF726FB48F20001CCF277413E
:10296000804601F02AF9A0B944F26C44C0F6000494
:1029700094E82F1007910690208B0892ADF8300054
:10298000A07E09930A95CDF82CC08DF8320006ACD4
:102990000CE0404601F06EF80B4606AC44F26121B3
:1029A00002462046C0F60001FDF748FC204600F034
:1029B00053FA00F023FC00F071FB00F01FFCDDF87F
:1029C000108040F2B110C2F20000007800283FF4FD
:1029D00074AF40F2B111C2F200010878002200F099
:1029E000DF0048284FF001000A7089F800007FF4EA
:1029F00064AF89F800006420FFF790FD3EA000F06E
:102A00002BFA00F0FBFBFFF771FD44F24C20C0F6FF
:102A1000000000F021FA00F0F1FB0120FEF7C2FAFD
:102A200048F20001CCF27741054601F0C6F80028D3
:102A30007FF42FAF44F26C44C0F6000494E82F10EA
:102A400007910690208B0892ADF83000A07E099384
:102A50000A95CDF82CC08DF8320006AC26E744F27A
:102A60001D200024C0F60000C4F20B0400F05EFA42
:102A700000F0C4FB206880F0010020604FF4FA7081
:102A8000FFF74CFDF6E700BF53797374656D207353
:102A90007461727465642E0D0A00000057616974D8
:102AA000696E6720666F7220274827206F6E205559
:102AB000415254206F72205553422E2E2E0D0A0083
:102AC00054696D652072656D61696E696E673A2043
:102AD00000000000207365636F6E64732E205072D7
:102AE0006573732027482720746F20636F6E6E65AF
:102AF00063742E0D0A0000000D0A5465726D696E34
:102B0000616C20636F6E6E656374656420766961C5
:102B100020555342210D0A002DE9F041C2B0A0F129
:102B20007F0111F15F0F02D242B0BDE8F081FDF7E5
:102B300075FBC0B23138232800F22581DFE810F0A0
:102B400024004E003800D00023012301230123017B
:102B50002301230123012301230123012301230155
:102B6000EA0023012301230123012301230149005A
:102B70002301230123015F002301230123012301FA
:102B8000230123019900FB0040F2A814C2F20004C3
:102B90002078B0FA80F0400920702178012000F000
:102BA00061FA217844F2AB32C0F60002A1A0A7E09E
:102BB00040F2AA14C2F200042078B0FA80F0400972
:102BC00020702178032000F04DFA217885A28AA098
:102BD00096E042B0BDE8F04100F060BA40F2A914BE
:102BE000C2F200042078B0FA80F040092070217809
:102BF000022000F037FA217884A289A080E044F214
:102C00004D40C0F6000000F027F940F2AB1840F24A
:102C1000AA1640F2A91740F2A8150024C2F2000833
:102C20000120C2F20006C2F20007C2F20005C4F29F
:102C30000B0488F8000030703870287020460F218F
:102C4000FEF724FB00F0DAFA4FF47A70FFF766FC27
:102C500044F2D830C0F6000000F0FEF8002088F8FA
:102C6000000030703870287020460F21FEF708FBF6
:102C70004BE040F2A810C2F20000007844F2694430
:102C8000002840F2A910C2F20000C0F6000400784B
:102C900044F265412246C0F6000108BF0A460028FA
:102CA00040F2AA10C2F200000078234608BF0B468B
:102CB000002840F2AB10C2F200000078254608BFA1
:102CC0000D46002808BF0C4644F2DE3122AEC0F6A5
:102CD00000013046CDE90054FDF7B0FA304661E01E
:102CE00040F2AB14C2F200042078B0FA80F0400940
:102CF00020702178042000F0B5F921782FA234A0AB
:102D0000002908BF104600F0A7F842B0BDE8F04126
:102D100000F074BA40F2A010C2F200000178B1FADB
:102D200081F1490901700078002842D044F2EC207A
:102D3000C0F60000E7E744F24430C0F6000000F0BF
:102D40008BF800F05BFA0120FEF72CF948F2000145
:102D5000CCF27741044600F030FFC8B944F26C4031
:102D6000C0F6000090E88E000DF1080CD0E9046573
:102D70008CE88E00018B807ECDE90665ADF82010D1
:102D80008DF822000DE044F25730C0F60000BAE79B
:102D9000204600F06FFE02460B462BA102A8FDF76D
:102DA0004DFA02A800F058F800F028FA42B0BDE849
:102DB000F08144F28930C0F60000A4E74C45443469
:102DC0002028564434293A204F46460D0A00000078
:102DD0004C4544342028564434293A204F4E0D0A9D
:102DE000000000004C4544332028564433293A2043
:102DF0004F46460D0A0000004C45443320285644F7
:102E000033293A204F4E0D0A000000004C45443251
:102E10002028564432293A204F46460D0A00000029
:102E20004C4544322028564432293A204F4E0D0A50
:102E3000000000004C4544312028564431293A20F6
:102E40004F4E0D0A0000000020205431203D202567
:102E50002E316620430D0A00B0B5044600780028E4
:102E600008BFB0BD48F20005C4F20305A969890690
:102E7000FCD4C0B2286000F06FF814F8010F0028ED
:102E8000F4D1B0BDF0B583B048F20004C4F203043D
:102E900010B34CF6CD410026CCF6CC416D4600BFB8
:102EA000A0FB0123DA0802EB8203A0EB430343F00B
:102EB0003003AB55013609281046F1D8771EE85D7E
:102EC000A1698906FCD4206000F046F8012E3E4638
:102ED000F4DC03B0F0BD00BFA0698006FCD4302153
:102EE0003020216003B0BDE8F04000F035B80000AC
:102EF00070B544F2B92604460009C0F60006305CFD
:102F000048F20005C4F20305A9698906FCD42860CB
:102F100000F022F804F00F00305C00BFA9698906B8
:102F2000FCD42860BDE8704000F016B8B0B5044687
:102F30000078002808BFB0BD48F20005C4F20305C0
:102F4000A9698906FCD4C0B2286000F005F814F81D
:102F5000010F0028F4D1B0BDB0B540F25625C2F241
:102F600000052A78531CD9B22B7040F21623C2F206
:102F700000034029985438BFB0BD40F21620C2F279
:102F80000000FEF727FDB0F5007F0DD140F21624BA
:102F9000C2F200040120FFF7C1FA29782046FEF7AB
:102FA00019FDB0F5007FF5D000202870B0BD0000FD
:102FB0002DE9F04140F25626C2F20006327844F282
:102FC000B92804460009C0F60008531C18F8000090
:102FD000D9B240F21627C2F2000740293370B85424
:102FE00018D340F21620C2F20000FEF7F3FCB0F551
:102FF000007F0DD140F21625C2F200050120FFF737
:103000008DFA31782846FEF7E5FCB0F5007FF5D063
:1030100000203070327804F00F00531C18F80000C4
:10302000D9B240293370B85438BFBDE8F08140F2BE
:103030001620C2F20000FEF7CDFCB0F5007F0DD1E6
:1030400040F21624C2F200040120FFF767FA31783B
:103050002046FEF7BFFCB0F5007FF5D000203070B1
:10306000BDE8F0810138C2B2032A88BF7047084624
:1030700006A151F82210002840F20000C4F20B0013
:1030800018BFFEF703B9FEF7FBB800BF0100000050
:1030900002000000040000000800000010B544F227
:1030A0004A44C0F600042046FFF7D6FE44F218302A
:1030B000C0F60000FFF7D0FE44F27D30C0F60000FD
:1030C000FFF7CAFE12A0FFF7C7FE44F23040C0F679
:1030D0000000FFF7C1FE44F2BD30C0F60000FFF76C
:1030E000BBFE44F2CA20C0F60000FFF7B5FE0CA0FC
:1030F000FFF7B2FE15A0FFF7AFFE1CA0FFF7ACFE76
:103100002046FFF7A9FEBDE8104000F077B800BFE9
:103110002020482F68202D2048656C700D0A000083
:103120002020412F61202D20546F67676C6520613E
:1031300075746F2D726561642028337320696E7415
:10314000657276616C290D0A000000002020312E86
:103150002E34202D20546F67676C65204C45442029
:103160005644312E2E5644360D0A00002D2D2D2D9D
:103170002D2D2D2D2D2D2D2D2D2D2D2D2D2D2D2D7F
:103180002D2D2D2D2D2D2D2D2D2D2D2D2D2D2D2D6F
:103190002D2D2D2D0D0A0000B0B50024C4F20B0416
:1031A00020460F21FEF76CF86420FFF7B7F90325DE
:1031B00020460121FEF76AF84620FFF7AFF92046C6
:1031C0000221FEF763F84620FFF7A8F92046042104
:1031D000FEF75CF84620FFF7A1F920460821FEF72C
:1031E00055F84620FFF79AF920460F21FEF748F8D8
:1031F0009620FFF793F9013DDAD1B0BDB0B540F2AA
:103200005625C2F200052878002808BFB0BD2978ED
:1032100040F21620C2F20000FEF7DCFBB0F5007FA2
:103220000ED140F21624C2F2000400BF0120FFF7C5
:1032300075F929782046FEF7CDFBB0F5007FF5D073
:1032400000202870B0BD5FEA400C08BF91F0000F6D
:103250004FEA8C234FEAC12243EA51514FEA1C50F6
:1032600018BF00F5F0404FEA300018BF41F00041B0
:103270005FEA6C5C00F02980BCF1FF3F08BF40F0C2
:1032800080407047130C06BF12044FF0100C4FF033
:10329000000C130E04BF12020CF1080C130F04BF34
:1032A00012010CF1040C930F04BF92000CF1020CFC
:1032B000D30F04BF52000CF1010C11464FF0000275
:1032C000A0F11F00A0EB0C00704711F0004F08BFE9
:1032D000704731F000413FF4D5AF0B0C06BF090435
:1032E0004FF0100C4FF0000C0B0E04BF09020CF154
:1032F000080C0B0F04BF09010CF1040C8B0F04BF69
:1033000089000CF1020CCB0F04BF49000CF1010C39
:10331000CCF1200322FA03F341EA030102FA0CF292
:10332000A0EB0C0000F101007047000023F07F4784
:1033300020F07F4C80EA030000F00040ACEB070374
:1033400003F57C5303F1FF032DE9804909B44FEAEB
:10335000144324EA03484FEA154B25EA0B4E0FF2BB
:10336000042606EB13273E7803FB0667C7F5000724
:1033700007FB06F64FEAD64606F102064FEA543737
:1033800007FB066CCCF1005C4FEA1C472CEA074CAB
:103390000CFB06F507FB06F404EB15464FEA961600
:1033A00049085FEA320234BF00204FF000404FEA84
:1033B000D13706FB07FC4FEA1C4C0CFB0BF7D21B6A
:1033C00003FB0CF761EB07010CFB0EF7B0EB0740BA
:1033D00072EB17420CFB08F734BFA2EB0742B2EBCB
:1033E000074261EB17414FEA0C444FEA910706FB95
:1033F00007FC4FEA1C4C0CFB0BF7B0EBC74072EB21
:10340000573203FB0CF734BFA2EBC742B2EBC74203
:1034100061EB57310CFB0EF7B0EBC70072EB577244
:103420000CFB08F734BFA2EBC702B2EBC70261EB9B
:1034300057714FEA816141EA92114FEA826242EA92
:1034400090124FEA806004EBCC04039F4FEAD1371F
:1034500006FB07FC4FEA1C4C0CFB0BF7D21B03FBD3
:103460000CF761EB07010CFB0EF7B0EB074072EBBA
:1034700017420CFB08F734BFA2EB0742B2EB07423E
:1034800061EB17414FEA8C5504EB9C244FEA9107FE
:1034900006FB07FC4FEA1C4C0CFB0BF7B0EBC740DC
:1034A00072EB573203FB0CF734BFA2EBC742B2EB0F
:1034B000C74261EB57310CFB0EF7B0EBC70072EB64
:1034C00057720CFB08F734BFA2EBC702B2EBC7027E
:1034D00061EB57714FEA816141EA92114FEA8262D2
:1034E00042EA90124FEA806015EB4C2544F100044B
:1034F0004FEAD13706FB07FC4FEA1C4C0CFB0BF7DD
:10350000D21B03FB0CF761EB07010CFB0EF7B0EBD2
:10351000074072EB17420CFB08F734BFA2EB0742DF
:10352000B2EB074261EB17414FEA813141EA924128
:103530004FEA823242EA90424FEA80304FEA0C76FC
:1035400015EB1C1544F1000448EA03434EEA0B480E
:103550004FF0000EB2EB080C71EB030724BF62467C
:1035600039464EEB0E0E4FF0000B00185241494108
:103570004BEB0B0BB2EB080C71EB03077BF1000B71
:1035800024BF624639464EEB0E0E4FF0000B00187A
:10359000524149414BEB0B0BB2EB080C71EB0307AB
:1035A0007BF1000B24BF624639464EEB0E0E51EA0A
:1035B000020718BF46F0010616EB0E7655F1000221
:1035C00054F1000103D5BDE88901BDE80088BDE8DC
:1035D0008901BDE80048B619524141EB0101A3F150
:1035E0000103704780807F7E7D7C7B7A7978777657
:1035F00076757473727171706F6E6E6D6C6C6B6AD0
:103600006A6968686766666564646363626161606D
:10361000605F5F5E5E5D5D5C5C5B5B5A5A595958EA
:103620005857575656555555545453535252525154
:10363000515050504F4F4F4E4E4D4D4D4C4C4C4BAA
:103640004B4B4A4A4A4949494848484747474746F1
:10365000464645454544444444434343434242422D
:10366000424141419C46002B30D477002BD04FEA99
:1036700037071CB503B44FF010004FF01001BAF13A
:10368000000F06D0BCF1000FDCBF40F0080040F096
:1036900008014FF000000FBCBDE810400BF1010B1A
:1036A000BBF1010F08BF5FEA170722BF12F1010249
:1036B00011F101014FF0004143F1000300F000401F
:1036C00043EA00007047F9D35708D0E746EA0646B8
:1036D0004FEA164613F1400F1FDD13F1200FDFBF35
:1036E00016430A46002120335B42BED0C3F12007B7
:1036F00046EA06464FEA164602FA07F746EA070682
:1037000022FA03F2C3F1200701FA07F742EA07029F
:1037100021FA03F14FF00003A7E746EA020646EA62
:1037200006464FEA164646EA0106BCBF46EA06468A
:10373000360C4FF000034FF000024FF0000194E709
:103740002DE9804C70B49A46934691E8380007C83A
:1037500031EA400C48BF34EA430C03D5FFF7E6FDDD
:10376000FFF780FFF0BCBDE8008C2DE9804C70B401
:103770009A46934691E8380007C810F0804F08BF7A
:1037800013F0804F03D100F005F8FFF76BFFF0BC9A
:10379000BDE8008C20F07F4723F07F4C80EA0300D7
:1037A00000F0004007EB0C03A3F57C53A3F1FE03EC
:1037B00092F0000F00F0B38095F0000F00F07780DA
:1037C0002DE901494FEA114021EA00484FEA144629
:1037D00024EA064700FB06FC08FB06F607FB08F890
:1037E00018EB06484CEB164C00FB07F718EB0748A4
:1037F0004CEB17404FEA124B22EA0B4E4FEA1546AC
:1038000025EA06470BFB06FC0EFB06F607FB0EFE41
:103810001EEB064E4CEB164C0BFB07F71EEB074E50
:103820004CEB174B18EB0B0840F1000018EB0E0B9C
:1038300058EB000840F100008F1A4FF000014FF0E4
:1038400000063CBFC943661B14BFB5EB040C002146
:103850003CBFC943F61B4FEA174427EA04454FEA29
:103860001C472CEA074C04FB076205FB07F70CFB1F
:1038700005F616EB074642EB174204FB0CFC16EB71
:103880000C4642EB1C421BEB060658EB0202414180
:103890004EEA8E0E46EA9E0601D5BDE80189B619AC
:1038A000524141EB0101A3F10103BDE801894FEA57
:1038B000144524EA05464FEA114721EA074C05FB67
:1038C00007F406FB07F70CFB06F111EB074144EB8D
:1038D000174405FB0CFC11EB0C4144EB1C444FEA74
:1038E000124722EA074C05FB07F206FB07F70CFB21
:1038F00006F616EB074642EB174205FB0CFC16EBEF
:103900000C4642EB1C456A1854F1000148BF704751
:10391000B619524141EB0101A3F10103704795F043
:10392000000F37D04FEA114221EA02464FEA14470E
:1039300024EA074C02FB07F106FB07F70CFB06F431
:1039400014EB074441EB174102FB0CFC14EB0C4455
:1039500041EB1C414FEA154725EA074C02FB07F5EE
:1039600006FB07F70CFB06F616EB074645EB17457B
:1039700002FB0CFC16EB0C4645EB1C42121951F1F4
:10398000000148BF7047B619524141EB0101A3F154
:10399000010370474FEA144524EA05464FEA1147F0
:1039A00021EA074C05FB07F106FB07F70CFB06F2C3
:1039B00012EB074241EB174105FB0CFC12EB0C42EA
:1039C00051EB1C414FF0000648BF7047921841EB85
:1039D0000101A3F101037047490050EAC12018BF5B
:1039E00004204A0D18BF40F0010040F2FF72B2EB14
:1039F000515F08BF40F00200012808BF0520704752
:103A000030380A2801D2012070470020704700009A
:103A100010B500290AD00878002807D00548784456
:103A2000FDF74CF8002801D0002010BD0248784472
:103A300010BD00009E0A0000960A000010B5002983
:103A40000AD00878002807D005487844FDF736F8F2
:103A5000002801D0002010BD0248784410BD0000AD
:103A6000820B00007A0B00000808A0F500114FEA55
:103A70003101704743004FEAD30C4FEA3C0C4340FE
:103A80001FBF40070CF1605113F0FE4F70471CF050
:103A9000006F03D10CF00041002070470CF0004390
:103AA00043EA507040EACC0010B500F09AFA00BF2B
:103AB000000000924FEA0001FFF7D6BF4FF000412F
:103AC000A1F500214FF000007047000090EA010FBF
:103AD00048BF81F0004100F1D682421A3CBF801AF3
:103AE00089184FEAD052A2EBD1534FF07F4C1CEA19
:103AF000410F18BF9CEA026F00F03B804FF0004C72
:103B00004CEA00204CEA012121FA03FC10EB0C0CDA
:103B10001ED202F1FF325FEA1C2040EBC25038BFD8
:103B200070471CF07F0F4FEA400C18BFBCF17F4F6D
:103B300038BF7047C3F12003994008BF20F001004F
:103B4000BCF17F4F38BF7047A0F1C04000F08FBA82
:103B50004FEA3C00000A40EBC25028BF1CF0FF0FA8
:103B60004FEA400CE6D018BFBCF17F4F38BF70471A
:103B7000EAE79CEA026F05D010EA5C0F08BF00F08C
:103B80000040704710B500F02CFA00BF64FBBE3E49
:103B900010B500F0F5F80CBF0120002010BD10B5E5
:103BA00000F0EEF814BF0120002010BD10B500F0A9
:103BB0002FF98CBF0120002010BD10B500F028F9AE
:103BC0002CBF0120002010BD10B500F055F994BFA6
:103BD0000120002010BD10B500F04EF934BF0120C7
:103BE000002010BD401058BFC0F14040491058BFE0
:103BF000C1F140418142EFF3008070474FF47F0CE8
:103C00001CEAD0121EBF1CEAD11392EA0C0F93EAF1
:103C10000C0F00F0858090EA010F48BF42F48072DB
:103C200040F4000C41F400002CF07F4120F07F4074
:103C300000B5A2EB030281420FF2081CACEB504E20
:103C40009EF800E0C0F100004FEA4E0E00FB0EFCB3
:103C500038BF49004FEA2C1C0CFB0EF34FEACE1E76
:103C60000EEB635E4FEA112C0EFB0CFC4FEAC121F8
:103C70004FEA1C5300FB031102F5FA024FEA112C24
:103C80000EFB0CFC4FEA01314FEADC4C00FB0C113F
:103C900042EB2242C14228BF09184CEB03335DF8C6
:103CA00004EB10EB410143EBC250B2F57C0F38BF7F
:103CB000704729D512F0F00F1CBF00F1C04000F092
:103CC00000407047008182838485868788898B8C39
:103CD0008D8E8F919293959697999A9C9D9FA0A275
:103CE000A3A5A7A8AAACAEB0B2B3B5B7B9BCBEC0C5
:103CF000C2C5C7C9CCCED1D4D7D9DCDFE2E6E9EC66
:103D0000F0F3F7FAFE0000004FEA400C0CF1807C63
:103D1000BCF17E4F28BF7047B0F1C04000F0A7B99A
:103D20000CEAD11390EA010F48BF42F48072624559
:103D300038BF634507D213F47F0F16D080EA010025
:103D400000F00040704710B500F04BF9097EFC3ED2
:103D500000F005B880EA010000F00040704780EAFA
:103D6000010000F0004000F082B912F47F0F04BFA0
:103D70000248704780EA010000F079B90000C07F76
:103D800050EA010C00F113801CF5000F58BFBCF580
:103D9000000F01D48842704707D710F5000F58BFB5
:103DA00011F5000F15D488427047894270471CF501
:103DB000000F04D5BCF5000FF7D5814270474FF0D6
:103DC000807C1CEB400F38BF1CEB410F01D28142BD
:103DD000704710B500F005F9922449004FF00050EB
:103DE0004FF08051FFF7FEBEB0FA80F310FA03F2F5
:103DF000C3F19D030AD0D90501EB1220530638BF49
:103E0000704700F1010008BF20F00100704700007A
:103E100050EA010C00F113801CF5000F58BFBCF5EF
:103E2000000F01D48842704707D710F5000F58BF24
:103E300011F5000F15D488427047894270471CF570
:103E4000000F04D5BCF5000FF7D5814270474FF045
:103E5000807C1CEB400F38BF1CEB410F01D281422C
:103E6000704710B500F0BDF8922449004FF0805023
:103E70004FF00051FFF7B6BE50EA010C00F113807D
:103E80001CF5000F58BFBCF5000F01D488427047E5
:103E900007D710F5000F58BF11F5000F15D4884251
:103EA0007047894270471CF5000F04D5BCF5000F20
:103EB000F7D5814270474FF0807C1CEB400F38BF34
:103EC0001CEB410F01D28142704710B500F089F818
:103ED000922449004FF000504FF08051FFF782BE0E
:103EE0004FF47F0C1CEAD0121EBF1CEAD11392EAD9
:103EF0000C0F93EA0C0F00F0478090EA010F48BFC7
:103F000042F480724FF0004C4CEA00204CEA012150
:103F100002EB0302A0FB0113A2F50002002918BF67
:103F200043F001035B0028BF4FEA330342EB224218
:103F30005FEA132C4CEBC2502EBFBCEB436FB2F5C3
:103F40007C0F70474FEA036CBCF1004F08BF20F0B4
:103F50000100B2F57C0F38BF70470BD582F0FF022D
:103F600012F5803FC8BF704700F1C040D8BF00F0D5
:103F70000040704700F5000C5FEA4C0C48BF7047EA
:103F8000B0F1C04000F073B80CEAD11390EA010F11
:103F900048BF42F48072624538BF634504D280EA6C
:103FA000010000F00040704710B500F01AF800BFA3
:103FB0008900013E00F007B800F009B85FEA410C43
:103FC0005FEA1C6C08D080EA010000F050B85FEA9C
:103FD000400C5FEA1C6CF6D14FF00040A0F5800069
:103FE00070470EF1020E2EF0030E5EF8044B2442D1
:103FF00004D44FEA4102B2F17F4F11D84FEA400397
:10400000B3F17F4F0CD80ED14FEAD07C0CEB4C0CA7
:104010000CF1020CB2F17F4F08BF4CEBD17C04E0F5
:104020004FF0080C01E04FEAD17C0CEB4C0324FA72
:1040300003F404F00704B4F1040C06D20EEB840C74
:10404000BDE810404CF0010C6047DFE80CF00708B9
:1040500002024FF00040A0F5800010BD084642006B
:1040600018BFD2F1807288BF00F0004010BDFF2160
:1040700041EAD050C005704790EA010F48BF81F077
:1040800000413FF52AAD421A04D882F00042A0EB6D
:10409000020011444FEAD052A2EBD1534FF07F4CB3
:1040A0001CEA410F18BF9CEA026F4AD04FF0004C47
:1040B0004CEA00204CEA012121FA03FCB0EB0C0C85
:1040C0000FD412F0FE0F36D05FEA4C001DD500125F
:1040D00040EBC25038BF70471CF03F0F18BF70470D
:1040E0000BE05FEA1C20A2F1010240EBC25038BF96
:1040F00070471CF07F0F18BF7047C3F12003994031
:1041000014BF401E20F0010070474FEA12238008C0
:1041100008BF7047B0FA80FCA2EB0C02CCF1280C6F
:1041200060FA0CF093EA122F04BF00EBC250704704
:104130004FEAC3707047130A5FEADC1008BF70478C
:10414000F6E79CEA026F04D010EA5C0F08BF00207B
:10415000704710B5FFF745FF40DFF63E81F00040A5
:104160007047FCF713BA000002400000000000A0F6
:104170000000000005400000000000C80000000032
:104180000C4000000000409C0000000019400000AE
:104190000020BCBE0000000034400000BFC91B8EE0
:1041A00000000004B5400000504BCFD06607E2CFBE
:1041B000010000006C4100003E8251AADFEEA734EE
:1041C00001000000D9420000DCB5A0E23A301F97A0
:1041D000FFFFFFFFB4450000FD25A0C8E9A3C14FC4
:1041E000FFFFFFFFFF3F0000000000800000000015
:1041F000FF3F000000000080000000000D0A546531
:10420000726D696E616C20636F6E6E656374656458
:10421000207669612055415254210D0A000D0A5B38
:1042200054494D454F55545D204E6F202748272057
:1042300072656365697665642E2053657373696F73
:104240006E20636C6F7365642E0D0A00494E4954ED
:1042500049414C2054454D5020524541443A0D0AA5
:104260000020205431203D20252E316620430D0AA8
:10427000004155544F3A2054313D252E316620439C
:104280000D0A004552524F523A20525444203D20CC
:1042900030206F722030784646464620E2869220D3
:1042A000636865636B205252454620616E642077D7
:1042B0006972696E67210D0A003031323334353648
:1042C000373839414243444546002020542F74205A
:1042D0002D20526561642074656D7065726174751E
:1042E000726520286F6E6365290D0A004155544F91
:1042F0002D524541442054454D504552415455524C
:10430000453A20454E41424C454420286576657229
:1043100079203373290D0A002D2D2D2D2D2D2D2DB6
:104320002D2D204C454420262053454E534F5220DE
:10433000434F4E54524F4C202D2D2D2D2D2D2D2DD4
:104340002D0D0A0054454D503A2052656164696E46
:10435000672E2E2E0D0A00556E6B6E6F776E2063E2
:104360006F6D6D616E642E2054797065202748272B
:1043700020666F722068656C702E0D0A00436F6DA9
:104380006D616E64733A0D0A004155544F2D5245CC
:1043900041442054454D50455241545552453A20D0
:1043A00044495341424C45440D0A004C4544312098
:1043B00028564431293A204F46460D0A0020204C09
:1043C0002F6C202D20566572696679204C45447308
:1043D0003A204F4E202D3E204F46460D0A00537482
:1043E000617475733A0D0A20204C454431202856DB
:1043F0004431293A2025730D0A20204C45443220AF
:1044000028564432293A2025730D0A20204C454471
:10441000332028564433293A2025730D0A20204C96
:104420004544342028564434293A2025730D0A0087
:104430002020532F73202D2053686F7720737973BA
:1044400074656D207374617475730D0A005665721E
:10445000696679204C4544733A20414C4C204F4EBC
:104460002E2E2E20004F4646004F4E002020543165
:10447000203D204552524F5220286E6F2073656EAA
:10448000736F72290D0A00004155544F3A20543180
:104490003D4552524F520D0A00000000E845000809
:1044A00000000020600000002401000848460008C9
:1044B00060000020F807000044010008100100001F
:1044C00043000000F8FFFFFF0040404040404040F4
:1044D00040404141414141404040404040404040D7
:1044E000404040404040404040050202020202027B
:1044F00002020202020202020220202020202020CA
:1045000020202002020202020202909090909090DD
:10451000101010101010101010101010101010109B
:10452000101010100202020202028888888888880F
:1045300008080808080808080808080808080808FB
:104540000808080802020202400000000000000003
:10455000000000000000000000000000000000005B
:10456000000000000000000000000000000000004B
:10457000000000000000000000000000000000003B
:10458000000000000000000000000000000000002B
:10459000000000000000000000000000000000001B
:1045A000000000000000000000000000000000000B
:1045B00000000000000000000000000000000000FB
:1045C0000000000000000000000000001C000000CF
:1045D00043000000F8FFFFFF0C0000000E00000089
:1045E0000F0000002E00000000127A0009024300B4
:1045F00002010080320904000001020201000524CA
:10460000001001052401000104240206052406000F
:10461000010705820340000209040100020A0000AC
:104620000007058102400000070503024000001258
:1046300001100102000040830425F1000000000089
:08464000010000000000000071
:04000005080000C12E
:00000001FF
