:020000040800F2
:10000000F8070020B5010008BD010008BF01000885
:10001000C1010008C3010008C5010008000000007C
:10002000000000000000000000000000C701000800
:10003000C901000800000000CB0100088918000871
:10004000CF010008D1010008E926000800000000E7
:1000500000000000D5010008D7010008D901000800
:10006000DB01000800000000DD010008DF010008DE
:10007000E101000800000000E3010008E5010008BC
:10008000E7010008E901000800000000EB0100089A
:10009000ED0100080000000000000000000000006A
:1000A000000000000000000000000000EF01000858
:1000B000F1010008F3010008F5010008F70100084C
:1000C00000F002F800F066F814A696E8000CB244BE
:1000D000B344DA4501D100F05DF8BAE80F000FA68D
:1000E00096E83000A5EB040504EB0607AAEB07042D
:1000F000A7F101074FEA15154FEA3414A4F10104E2
:10010000AC4201D300F046F813F0010F18BFFB1A00
:1001100043F0010300F001F8DBE718470C4600004C
:100120002C460000103A24BF78C878C1FAD852078C
:1001300024BF30C830C144BF04680C607047000061
:10014000704700000023002400250026103A28BF35
:1001500078C1FBD8520728BF30C148BF0B60704739
:10016000662904F00C81732900F075830020704724
:100170001FB500F075FB04000020002103F056FDC0
:10018000401C60600020002103F066FDE0601FBDA0
:1001900010B510BD00F064FC1146FFF7E9FF02F056
:1001A000D3FC00F082FC03B4FFF7F2FF03BC00F0C5
:1001B000C5FC00001348804713480047FEE7FEE7F0
:1001C000FEE7FEE7FEE7FEE7FEE7FEE7FEE7FEE707
:1001D000FEE7FEE7FEE7FEE7FEE7FEE7FEE7FEE7F7
:1001E000FEE7FEE7FEE7FEE7FEE7FEE7FEE7FEE7E7
:1001F000FEE7FEE7FEE7FEE704480549054A064B31
:100200007047000005190008C1000008F80100202F
:10021000F8070020F8030020F803002010B504467A
:1002200000F0D4F80068005D000704D5DF2C02D090
:10023000A4F1200010BD204610BD00000FB41CB575
:10024000074B06AA7B4469460090059800F0D9FA4E
:100250000020694600F0E8FA1CBC5DF814FB0000C1
:10026000E105000070B50C460546012A05D0287846
:10027000800600D5EA69002302E0012305E05B1C4B
:10028000934202D2E05C0028F9D1A869E618C01AAE
:10029000A861286A184428622846AFF3008004E069
:1002A000D5E9012114F8010B9047B442F8D3284650
:1002B000AFF3008070BD2DE9F0474FF0000A89468A
:1002C0000446C0F820A02046E1688847002876D080
:1002D000252806D0D4E901219047206A401C2062DD
:1002E000F1E7E168204600258847C4F81CA00646CF
:1002F0000027C4F818A02A2E09D0304603F08EFC3F
:1003000038B304EB8708303EC8F8186019E059F894
:10031000041B204604EB87029161E1688847012FA6
:10032000064618D1E069002820DA25F020051DE0F6
:10033000D8F8180000EB800006EB40003038C8F811
:1003400018002046E1688847064603F067FC00284D
:10035000EED1012F0AD02E2E08D12046E168884721
:100360007F1C0646022F45F02005C4DBA06900284B
:1003700003DA404245F00105A061E80701D025F00D
:100380001005B6B1A6F14100192802D8203645F46F
:1003900000654A463146204625604D46FFF7E0FE9F
:1003A00058B1012806D0ED1D25F0070000F108091D
:1003B00089E704E005F1040985E730468AE7206A09
:1003C000BDE8F087704770477047000010B500F037
:1003D00047FA001D10BD00BF553800002DE9FF4F42
:1003E0000C461E464FF0FF378BB0D2E90001DDF816
:1003F00060800A908A46C1F30A5505B93D4600213E
:1004000008464FF00000BAF1000F00F4400005DA92
:1004100000EB80004FF4400101EA50004FEA905990
:10042000B9F1010F00DDB9460A9850EA4A000ED032
:1004300044F61050A5F2FF3545432F14B8F1000FD4
:100440001ED07542291E1EDDC9F100021CE0B8F164
:10045000010F4FF0000001D0302103E0F24305E02E
:100460002154401CB042FBDB3046002200212154C5
:100470000B99C1F80880C1E900200FB0BDE8F08FEA
:10048000BD1B6D1CDEE74A4600DA694206A800F093
:1004900071FA06AB93E8070003AB83E80700504608
:1004A0000A9902F0DFFF8DE80700A0F500501F3821
:1004B00000900398002D0ADD42F21F014A460844CD
:1004C000002303A90390684603F048FA09E0A0F569
:1004D00000504A461F38002303A90390684603F0E2
:1004E00052FA8DE807000004000C03D04FF0FF30F3
:1004F000410800E01046B8F1000F03D0002200923E
:1005000015461EE0751E05D400F0AEF93032625576
:100510006D1EF9D5B3460122084302D000227F1C8C
:1005200004E02078302801D100227F1E002A09979C
:1005300084D01DE0112D07DA00F096F930326255B3
:100540006D1C50EA0102F5D1084302D00098C8B1F1
:100550000EE00021681E05E0235C625C63542254B7
:10056000401E491C8142F7DBAB46A81B401E099088
:10057000002004F80B000B98099AC0F80880C0E925
:10058000002B7AE711264FF0000857E72DE9F04FCE
:1005900088460446D21D22F0070191B0D1E900013E
:1005A000CDE90A0103F026FB02460B98C00F01D0EB
:1005B0002D2007E02068810701D52B2002E02021B3
:1005C00001EAC000032A099001D0072A05DB03468F
:1005D0004146204600F08EF90BE12078800601D5D7
:1005E000E06900E00620B8F1650F814606D0B8F159
:1005F000660F18D0B8F1670F70D131E00020B9F163
:10060000110F009001DB112301E009F101030AAA97
:1006100001A90CA8FFF7E2FEDDE90C70002609F144
:100620000105834647E001204B4600904FF000470C
:100630000AAA01A90CA8FFF7D1FEDDE90DB00C99BB
:100640005D46002610B909F101000D18B9EB05004F
:1006500003D4C0F1FF3609F10105A5EB09002BE039
:10066000B9F1010F01DA4FF001090020B9F1110FC2
:100670000090484601DD112300E003460AAA01A9C3
:100680000CA8FFF7ABFEDDE90C704D460026834653
:10069000207800070AD4AB4500DA5D4601A8012D99
:1006A00004DD411911F8011C302907D04F4502DA49
:1006B00017F1040F04DA012082460FE06D1EEEE709
:1006C000002F02DCED1B3E4403E0781CA84200DD55
:1006D0007D1CB81B00F1010A4FF00047207800078D
:1006E00003D4AA4501DB4FF0FF3A0021B7F1004FD8
:1006F0000DF143088DF8431024D002202B23002F46
:1007000001DA7F422D230A21021EA0F1010000DC44
:100710005FB197FBF1FC97FBF1F201FB1C7C1746E4
:100720000CF1300C08F801CDEEE7A8F101000370E0
:100730002188090501D5452100E06521A0F10108C6
:1007400000F8011C09980FA9A1EB0807FF1D00B1D3
:100750000120411901EBEA70A1693844081A401ED2
:10076000A0612078C00602D42046AFF3008009982B
:1007700028B1D4E901219047206A401C20622078EA
:10078000C00622D52046AFF300801EE0002E04DB19
:10079000B34502DD01A8805D00E03020D4E90121ED
:1007A0009047206A401C2062761CAAF101005FEA93
:1007B000000A0AD100F054F8C0680168405CD4E92E
:1007C00001219047206A401C2062281EA5F10105E6
:1007D000DCDC07E0D4E9012118F8010B9047206A1E
:1007E000401C2062381EA7F10107F3DC2046AFF35E
:1007F0000080032011B041E601694A1C02610878BB
:10080000704700B58FB0CDE9013100210591054950
:100810007944CDE9031011466846FFF74CFD0FB04F
:1008200000BD0000E5FFFFFF0A6802F8010B0A6047
:10083000704710B5436913B1AFF3008001E0FFF7D3
:1008400011FD012010BD127800F124010A70002270
:100850004A700122EDE711684FF0FF32E9E700002E
:10086000004870478000002030B5B0F10A0271F1F5
:1008700000034FEA900E4EEA817EB0EB0E0061EB72
:1008800091014FEA101E4EEA017E10EB0E0041EB83
:1008900011114FEA102E4EEA016E10EB0E0041EBE3
:1008A00011214FEA104E4EEA014E10EB0E0041EBC3
:1008B0001141401841F100014FEAD00040EA417077
:1008C0004FEAD1014FEA810444EA907410EB8005AD
:1008D00044EB01046D1944EB0404521BA3414FF097
:1008E000000348BF0A3200D530BD401C41F1000171
:1008F00030BD00002DE9F0411F4604460326016883
:10090000072A01F4006004DB08B116A505E016A56E
:1009100003E008B115A500E015A521F01000206046
:10092000A069C01EA0610FB1401EA0612046AFF3B8
:1009300000804FB1D4E9012138469047206A401C1D
:100940002062C01C206206E0206AFAE7D4E9012197
:1009500015F8010B9047761EF8D22046AFF30080C1
:10096000BDE8F0814E414E006E616E00494E46007A
:10097000696E66002DE9F047814616468AB0354813
:1009800078440DC88DE80D0032487844801C03ACD3
:100990000DC884E80D0041F69B300844372190FBD8
:1009A000F1F290FBF1F5A5F1800501FB12041B3C6F
:1009B00002D56442012000E00020DFF898A08046C4
:1009C0000027FA44AAF1BE0A0EE0E0070AD0324638
:1009D000684607EB470101230AEB810102F0D3FFD0
:1009E0008DE8070064107F1C002CEED1194F7F4466
:1009F000AE3F19E0E80715D007EB04100DF1180A17
:100A000090E80E008AE80E00C068F04201D1981903
:100A100008903246012306A903A802F0B4FF03ABF5
:100A200083E807006D10641C002DE3D14FF0010333
:100A300032466946B8F1000F03A802D002F08EFFDB
:100A400001E002F0A0FFC9E90001C9F808200AB0DE
:100A5000BDE8F0877C3A0000004870476000002045
:100A60007546FFF7F9FFAE4605006946534620F08C
:100A70000700854618B020B5FFF7BEFBBDE8204053
:100A80004FF000064FF000074FF000084FF0000B4A
:100A9000AC46ACE8C009ACE8C009ACE8C009ACE8B9
:100AA000C00921F007018D46704710B50446AFF329
:100AB00000802046BDE81040FFF775BB4FF0013CB9
:100AC00050F8042B51F8043B9A4221D1A2EB0C03BD
:100AD000934313EACC1317D150F8042B51F8043B7D
:100AE0009A4215D1A2EB0C03934313EACC130BD11A
:100AF00050F8042B51F8043B9A4209D1A2EB0C03A5
:100B0000934313EACC13DBD04FF00000704700BFD3
:100B1000D01A01BAB1FA81F101F0180122FA01F0FC
:100B2000CB40DBB2C0B2C01AC1F120012CFA01F3F4
:100B3000D11A914311EAC311E6D170470149182037
:100B4000ABBEFEE726000200704700002DE9F0432F
:100B500087B044F2A44040F200090025C0F600002E
:100B6000C4F20B09C4F20A0502F074FB4FF0A8703E
:100B70000121012400F016FE1C20C4F202000168CD
:100B800041F4005101600068C5A18004CEA058BFA7
:100B9000084602F05FFB04AE304600F045FC40F230
:100BA0000020C0F20210CDF81700602009F5803750
:100BB000ADF81000384631468DF8124000F094FB35
:100BC0000420ADF8100002204FF000088DF8180046
:100BD000384631468DF8128000F086FB1020ADF8C3
:100BE00010004FF40070ADF81800484631468DF8FB
:100BF00012408DF81A4000F077FBBAA002F02AFBF1
:100C00004846102100F006FC0A2001F02DFEBBA092
:100C100002F020FBD9F8000044F22654C006C0F6CA
:100C2000000444F229572046C0F6000758BF384652
:100C300002F010FB44F2D366C0F60006304602F024
:100C400009FB4846102100F0EBFB0A2001F00CFEE6
:100C5000ADA002F0FFFAD9F80000C00658BF274641
:100C6000384602F0F7FA304602F0F4FA284600F06F
:100C7000D5FD2846002100F0A1FD0DF106073846FC
:100C800000F0F8FD8020ADF80C001020C0F20070DC
:100C90000290284639468DF80E8000F0CFFD284698
:100CA000012100F0AFFD0A2001F0DEFD48461021D1
:100CB00000F0B6FB0A2001F0D7FD96A002F0CAFAB8
:100CC000C12002F0ADFA304602F0C4FA48461021C5
:100CD00000F0A0FB2846012100F0AAFD0028F9D071
:100CE0002846802100F0C4FD2846042100F0A0FD24
:100CF0000028F9D0284600F0B7FD00BF28460121A2
:100D000000F096FD0028F9D02846C12100F0B0FD82
:100D10002846042100F08CFD0028F9D0284600F078
:100D2000A3FD4846102100F07BFB0A2001F09CFD4A
:100D30004846102100F06EFB2846012100F078FDA6
:100D40000028F9D02846002100F092FD2846042111
:100D500000F06EFD0028F9D0284600F085FD00BFA8
:100D60002846012100F064FD0028F9D02846002122
:100D700000F07EFD2846042100F05AFD0028F9D03D
:100D8000284600F071FD06464846102100F048FB59
:100D900044F22D50C0F6000002F05CFAF6B2304684
:100DA00002F03EFA44F2D360C0F6000002F052FABC
:100DB00044F2D74044F20151C0F60000C0F60001F1
:100DC000C12E08BF084602F045FA4846102100F03F
:100DD00021FB00BF2846012100F02AFD0028F9D0A0
:100DE0002846002100F044FD2846042100F020FDA3
:100DF0000028F9D0284600F037FD00BF2846012121
:100E000000F016FD0028F9D02846002100F030FD42
:100E10002846042100F00CFD0028F9D0284600F0F7
:100E200023FD06464846102100F0FAFA48461021F4
:100E300000F0F0FA2846012100F0FAFC0028F9D071
:100E40002846802100F014FD2846042100F0F0FC23
:100E50000028F9D0284600F007FD00BF28460121F0
:100E600000F0E6FC0028F9D046F00400C1B22846A4
:100E700000F0FEFC2846042100F0DAFC0028F9D03E
:100E8000284600F0F1FC4846102100F0C9FA44F26F
:100E9000C040C0F6000002F0DDF907B0BDE8F08305
:100EA0004552524F523A204661696C656420746F16
:100EB00020656E61626C65205353503220636C6F05
:100EC000636B210D0A0000004F4B3A205353503200
:100ED00020636C6F636B20656E61626C65642E0DC0
:100EE0000A00000054657374696E6720435320281C
:100EF000504234292E2E2E0D0A0000004353204C60
:100F00004F573F2000000000435320484947483FC7
:100F10002000000057726974696E6720434F4E4687
:100F200049473A203078000070B501281CBF0020E6
:100F300070BD0025C4F20A0505F580342046102155
:100F400000F068FA2846012100F072FC0028F9D070
:100F50002846002100F08CFC2846042100F068FCA3
:100F60000028F9D0284600F07FFC00BF2846012168
:100F700000F05EFC0028F9D02846002100F078FC43
:100F80002846042100F054FC0028F9D0284600F03F
:100F90006BFC06462046102100F042FA2046102144
:100FA00000F038FA2846012100F042FC0028F9D070
:100FB0002846802100F05CFC2846042100F038FC23
:100FC0000028F9D0284600F04FFC00BF2846012138
:100FD00000F02EFC0028F9D046F00400C1B22846EB
:100FE00000F046FC2846042100F022FC0028F9D03D
:100FF000284600F039FC2046102100F011FA204666
:10100000102100F007FA00BF2846012100F010FC73
:101010000028F9D02846802100F02AFC2846042127
:1010200000F006FC0028F9D0284600F01DFC00BFA7
:101030002846012100F0FCFB0028F9D046F084008E
:10104000C1B2284600F014FC2846042100F0F0FB51
:101050000028F9D0284600F007FC2046102100F0B7
:10106000DFF90A2001F000FC2046102100F0D2F93F
:101070002846012100F0DCFB0028F9D02846012198
:1010800000F0F6FB2846042100F0D2FB0028F9D03E
:10109000284600F0E9FB00BF2846012100F0C8FB0C
:1010A0000028F9D02846002100F0E2FB2846042160
:1010B00000F0BEFB0028F9D0284600F0D5FB06461C
:1010C0002846012100F0B4FB0028F9D02846002171
:1010D00000F0CEFB2846042100F0AAFB0028F9D03E
:1010E000284600F0C1FB05462046102100F098F983
:1010F000EDB245EA062080B244080AA002F0AAF840
:10110000204602F059F80CA002F0A4F8F0B202F068
:1011100087F8284602F084F809A002F09BF82046E0
:1011200070BD00BF4D415833313836353A205254E6
:1011300044203D20000000002028307800000000FE
:10114000290D0A0070B50025C4F20A05FFF7ECFE70
:1011500005F5803604463046102100F05BF900BFEB
:101160002846012100F064FB0028F9D02846072119
:1011700000F07EFB2846042100F05AFB0028F9D03D
:10118000284600F071FB00BF2846012100F050FB0B
:101190000028F9D02846002100F06AFB28460421E7
:1011A00000F046FB0028F9D0284600F05DFB05461C
:1011B0003046102100F034F928A002F04BF8EEB2CE
:1011C000304602F02DF844F2D360C0F6000002F081
:1011D00041F846B1E80724D1A80727D468072AD4E4
:1011E00028072DD434E06CB3204602F00BFF002119
:1011F000C4F2D73102F082FF4FF0605102F07EFF5F
:101200000021CCF2C82102F06FFD41F6B861C3F6AF
:10121000C56102F001FE0021CCF2A00102F064FDE4
:1012200070BD12A002F016F8A807D7D518A002F0DA
:1012300011F86807D4D51FA002F00CF8280707D5CD
:1012400023A003E044F26E40C0F6000002F002F872
:101250004CF20000CCF2794070BD00BF52415720E3
:101260004641554C54203D2030780000202D3E2032
:10127000525444494E2D203E20302E3835C39756C7
:101280004249415320286F70656E290D0A00000005
:10129000202D3E20525444494E2D203C20302E38E3
:1012A00035C3975642494153202873686F72742999
:1012B0000D0A0000202D3E20524546494E2D203E6D
:1012C00020302E3835C39756424941530D0A00004D
:1012D000202D3E204F7665722F756E646572766F95
:1012E0006C746167650D0A002DE9F04F87B04568A1
:1012F000D0F80890C368D0F810A04769D0F818B0AB
:10130000C669B1F800E0BEF1000F68D00693CDE9E0
:1013100004790190012703234FF0011200244FF0BC
:1013200000094FF0000C7046CDF800E009E000BF66
:101330007F009B0052000CF1010C400804F10204F4
:1013400045D05FEAC07EF3D003968E78BD4306FA9F
:101350000CF6354302950D7A059EA5409E43354314
:1013600005958D7A069E91F803E0BE4305FA0CF5CB
:10137000D84691F804B035430CF1100606952AEAD8
:10138000020A0EFA06F545EA0A0E0BFA0CF54EEAC9
:10139000050A91F805B0049D49EA030925EA020E01
:1013A0000BFA06F58E7945EA0E0506FA0CF62E4381
:1013B00004964E7A28EA0305A64046EA050BCE7944
:1013C000039D06FA0CF6BD432E43029DB0E76FEA7B
:1013D0000902069BDDE90479DDE900E001E04FF058
:1013E000FF32416821EA0E0141608168114081604D
:1013F000C16821EA0E01C160C0F810A0C0F818B0A1
:101400004761C661C360C0F80890456007B0BDE899
:10141000F08F0000026822EA0101016070470000BD
:1014200002681143016070474FF6FF71018000218F
:10143000C0F80210C0F80610817270470C21C4F287
:1014400002010A6822F0F00242EA001008607047C8
:101450000C21C4F202010A6822F4407210430860B1
:10146000704700000C21C4F202010A6822F0030256
:10147000104308607047000080B581B040F21C0E38
:1014800040F2100C48F23C01C4F2020EC0F6000C0F
:10149000C4F20D01CEF800C051F8042C02F03F0355
:1014A0003F2B00F29980DFE803F08097979797979A
:1014B00097979720979797979797979720979797AA
:1014C000979797979720979797979797979720979A
:1014D00097979797979797509797979797979797E3
:1014E0005097979797979797975022F03F0041F81A
:1014F000040C40F2D870C4F2B0300122CEF800C023
:1015000002600020009000BF0A680098013000903F
:101510000098400A022802D812F40000F4D00868AB
:1015200000204EF8100C4EF8180C4EF8140C4EF823
:101530000C0C4EF8080CCEF80400CEF80800CEF8DB
:101540000C00CEF8100001B080BD40F2D870C4F29B
:10155000B0300123CEF800C003600020009000BF2F
:101560000B680098013000900098400A022802D8C9
:1015700013F40000F4D0086800204EF8100C4EF868
:10158000180C4EF8140C4EF80C0C4EF8080CCEF853
:101590000400CEF80800CEF80C00CEF8100022F0BF
:1015A0003F0041F8040C01B080BD40F2D870C4F295
:1015B000B0300122CEF800C002600020009000BFD1
:1015C0000A680098013000900098400A0228A6D8C6
:1015D00012F40000F4D0A2E722F03F0202F136003C
:1015E00041F8040C40F2D870C4F2B0300123CEF8B8
:1015F00000C00360002000900B680098013000904C
:101600000098400A022802D813F40000F4D00868B9
:1016100000204EF8100C4EF8180C4EF8140C4EF832
:101620000C0C4EF8080CCEF80400CEF80800CEF8EA
:101630000C00CEF8100041F8042C01B080BD000071
:101640002DE9F0410C21C4F202010A680A6840F653
:10165000001CC0F23D0C0E6841F20023D207E046A8
:10166000C0F27A0304BF41F20028C0F27A0876077C
:10167000C64606D551F8086CC6F30326013606FBAC
:1016800008FE0D68C5F301251C46DFE805F01202CF
:101690000D100C68240674460BD50C68C4F30214B4
:1016A00001342EFA04F404E04FF4004401E049F65A
:1016B000404404604C684C684D68E407644608BFC9
:1016C0001C466D07264606D551F8085CC5F3031580
:1016D000013505FB04F64D68C5F3001526FA05F53E
:1016E0004560CD68C5F302172D061D4648BF2CFA8C
:1016F00007F5C560CF6807F007023F0748BF2CFA1F
:1017000002F303618A6802F00303DFE803F00702D3
:101710000406A04602E0F04600E0B0468A684FF4B6
:101720000043C2F30116DFE806F00802050749F698
:10173000404302E0434600E02B4689680A05C1F3B6
:101740000221013101EAE27123FA01F18160BDE871
:10175000F08100000821C4F202010A68012822F089
:1017600003020A6003D0022818BF704703200A68EA
:10177000104308607047000081B00020C4F20200EE
:10178000002100910168009A01320092009A520AE9
:10179000022A02D811F00401F4D00068C0F38000DE
:1017A00001B07047002940F21C01C4F202010A682E
:1017B0000CBF22EA000010430860704740F22C0C76
:1017C000C4F2020C0022DCF80030C4F20A0290429B
:1017D0000CD00022C4F2040290420FD123F0FF008B
:1017E000084440F08073CCF800307047FF20CFF6FB
:1017F000FF50184040EA012000F10073CCF800309F
:101800007047000042684FF6FD7C42F00203002959
:1018100008BF02EA0C03436070470000002101602A
:101820004160016141614162032101627047000032
:10183000C068084018BF01207047000010B54A88F2
:1018400002610A888B79CC7943EA02220B7A91F8FB
:1018500005E022441A44724491F804C00260497AB7
:101860006144416010BD0000806880B27047000094
:10187000816070474FF4E0614160002101814FF4C5
:10188000003101607047000040F2EC10C2F200002D
:1018900001680131016070470C20C4F20200016848
:1018A000016840F60012C9070168C0F23D0241F22A
:1018B000002C04BF41F20022C0F27A024907C0F2B4
:1018C0007A0C05D550F8083CC3F3032301335A437F
:1018D0000368C3F30123DFE803F00E02090C00687C
:1018E000C0F303100130B2FBF0FC04E04FF4004CF5
:1018F00001E049F6404C40F20000C2F20000C0F89E
:1019000000C0704740F200014EF608520C20C0F6AD
:101910000001CEF20002C4F2020011601021016148
:101920000021016040F8081C40F8041C41608160FF
:10193000C16041618161C16101620168016840F675
:101940000012C9070168C0F23D0241F2002C04BF39
:1019500041F20022C0F27A024907C0F27A0C05D5A2
:1019600050F8083CC3F3032301335A430368C3F31D
:101970000123DFE803F00E02090C0068C0F3031036
:101980000130B2FBF0FC04E04FF4004C01E049F6FA
:10199000404C40F20000C2F20000C0F800C07047A6
:1019A00040F2280CC4F2020C48F20002DCF80030CD
:1019B000C4F2030290420CD00022C4F2030290420F
:1019C0000FD123F0FF00084440F08073CCF80030C2
:1019D0007047FF20CFF6FF50184040EA012000F189
:1019E0000073CCF800307047026B4FF6FE7C42F07B
:1019F0000103002908BF02EA0C03036370470000DB
:101A0000B0B586B00D4689890446016301A8FFF789
:101A100017FE2821C4F2020148F200020198096869
:101A2000C4F20302944207D00022C4F2030294429B
:101A300005D101F0070101E0C1F30221C8402A6885
:101A40009108B0FBF1F18000B0FBF1F0801AC00109
:101A5000B0FBF2F0033810F1050F02D2002006B0FF
:101A6000B0BD01F03F0089096162A062A888E988E1
:101A70006A890843298908431043E062012006B0BF
:101A8000B0BD00004FF416516022002380E80E0024
:101A90004FF44071818170470421C4F20201CA6889
:101AA000037840781A4342F48272CA600A6842EAB4
:101AB000001040F00100086051F8040CC007FBD092
:101AC00070470000B0B540F2D804C2F2000460785C
:101AD000E588811E1F294FF0010000F24D80DFE8EC
:101AE00001F0102E4B4B4B4B4B4B4B4B4B4B4B4B43
:101AF0004B4B4B4B4B4B4B4B4B4B4B4B4B4B4B4B36
:101B00001F33022D37D140F2C00141F6AD33C2F28E
:101B10000001C0F600030020022200F057FD2BE078
:101B2000072D28D140F2C00141F6AD33C2F20001C9
:101B3000C0F600030020072200F048FD1CE0022050
:101B4000022D08BF012017E0072D14D1A08840F214
:101B5000C001C2F2000100F073F868B940F2C001A0
:101B600041F6B153C2F20001C0F600030020072283
:101B700000F00CFD00E00220002808BF002D00D07E
:101B8000B0BD94F90000B0F1FF3F07DD0020002157
:101B900000220023BDE8B04000F0F8BC0020002186
:101BA00000220023BDE8B04000F010BD40F2D80292
:101BB000C2F200025378022B0CD0202B0CD110B5AE
:101BC00092880446104600F0C5F801462046BDE85C
:101BD000104002E0012100E0022100291CBF08465C
:101BE000704700210022002300F0D0BC01060FD076
:101BF000012000210023002B08BF704741F6B1539C
:101C0000C0F600030020944538BF624600F0BEBC19
:101C1000000A01280AD00228EAD140F2040100207B
:101C200001234FF0430CC2F20001E4E740F2470108
:101C3000002001234FF0120CC2F20001DBE700008C
:101C40004FF4E13008600020082288808A717047D4
:101C500040F2CC03C2F20003C3E900010020188166
:101C6000B2FA82F040094102002059817047000019
:101C700080B50846114600F021F8002840F2CC005B
:101C8000C2F200001CBF4FF400714181418900295C
:101C90001CBF002080BDD0E9001241F67143C0F6A0
:101CA00000030320BDE8804000F090BC40F2CC016E
:101CB000C2F20001002200200A81704729B1007899
:101CC00040F2F111C2F200010870002070470000DC
:101CD00010B500F0E3F8002818BF10BD044601203D
:101CE0000521002200F072FA02200521002200F0F6
:101CF0006DFA03200121002200F068FA40F2CC01C5
:101D0000C2F200014A89204602B110BD06C941F65F
:101D10007143C0F600030320BDE8104000F056BC3C
:101D200040F2CC0CC2F2000CBCF80830002B1CBFF7
:101D30001846704780B54FF4007E41F6AD430A4621
:101D40000146C0F600030120ACF808E0BDE8804081
:101D500000F01CBC00207047F0B581B002284FF0A5
:101D6000010608BF00291FD140F2F000D4B2C2F230
:101D700000002C2104FB01070225787EC0F2080533
:101D800008B1012005E0B87E00280CBF4FF4002503
:101D90000120387000261F207E7000F047FD20468D
:101DA00029463E7600F010FD304601B0F0BD00003F
:101DB00070B5044640F2F000C2F200002C2104FB92
:101DC000010561430122002642521F202E62C5E90F
:101DD0000166C5E903666A7600F028FD0221C0F2BB
:101DE000080120462E7600F0EFFC002070BD0000B8
:101DF000B0B50C46FFF750FE00F0B0FC4FF4803059
:101E000000F0C4FC206800F0C1FCD4E901010843E3
:101E100040F0010000F0CCFC40F2F005C2F20005F9
:101E20000024002005212C80C5E90144C5E90344B4
:101E30006C612C76C5E90744C5E9094400F0C4FC8F
:101E400040F2D800C2F20000C5E9044041F6F96052
:101E5000C0F6000068620120A87628801F20C5E92E
:101E6000024400F0E3FC0221C0F2080100202C76BD
:101E700000F0AAFC40F2E001C2F2000100200C7068
:101E80008C60B0BD80B50C2000F080FC40F2E00119
:101E9000C2F20001022200200A7080BD40F2E0017F
:101EA000C2F20001032200200A70704702284FF09E
:101EB000010008BF002900D07047100604BF0120B0
:101EC0007047B0B540F2F000C2F20000D4B22C214D
:101ED00004FB0105614340F2051242521F2000F04D
:101EE000A5FC0020287620460A2100F06DFC002089
:101EF000BDE8B040704700002DE9F04381B091F992
:101F00000060C6F341120125DFE802F0023F3B3AD0
:101F100006F01F03032B33D84F78B1F806800C2F3F
:101F200000F2D780B1F802C08A884FF0000901257D
:101F3000DFE817F00D005B00CF007100CF008B00D1
:101F40004300FC0097003000B4004C00FC00B6F1E8
:101F5000FF3F00F3EB8040F2E007C2F200073F785A
:101F6000042F07D1012B00F0E180022B02D1032ABC
:101F700000F2DC800E46022B80F0B7800021BEE02C
:101F80000225284601B0BDE8F08301B0BDE8F0436A
:101F9000FFF798BDBCF1000F00F09F80BCF1010578
:101FA00018BF0125BCF1010F40F0C08040F2E002F3
:101FB000C2F2000205231370B8E0064660460C46E4
:101FC00011464246FFF712FE214639E040F2E00397
:101FD000C2F200031B78042B00F0A88042EA0C0236
:101FE00095B2002D18BF0125A0E040F2E007C2F233
:101FF00000073F78042F07D1012B00F09780022BB8
:1020000002D1032A00F29280064618460D46614628
:10201000FFF7A2FE13E040F2E007C2F200073F78AC
:10202000042F06D1012B00F08180022B01D1032A5D
:102030007CD8064618460D466146FFF737FF29460D
:10204000054630464FF0000970E040F2E002C2F26F
:10205000000242F2A919C2F808C0C0F60009002522
:1020600064E040F2E002C2F2000212780D46131F53
:1020700040F2C80218BF0123C2F20002137041F6F9
:10208000B153C0F6000311460122044600F07EFA67
:102090002946204600254FF0000947E040F2E002C3
:1020A000C2F200021278042A40D040F2C802C2F202
:1020B000000241F6B15382F80090C0F600030D46CD
:1020C00011460122044600F061FA29462046002507
:1020D0002CE04FF00009022528E040F2E002C2F2B5
:1020E000000204231370002520E0022B0CD140F2E3
:1020F000F001C2F200012C2302FB0311497840F2E7
:10210000C802C2F20002117040F2C80141F6B15398
:10211000C2F200010025C0F6000302224D70044601
:1021200000F034FA20464FF00009314645EA080233
:1021300012047FF426AF40F2F00691F90010C2F2CB
:1021400000062C2700FB0764B1F1FF3F13DDA17EE1
:102150000025402200294FF00201C4E90155C4E9DD
:102160000352C4F81C904FF0020608BF012100F092
:102170004FFA267005E700250121C4E90155C4E99D
:102180000355C4F820906176218004461F2000F09A
:102190004DFB04FB076002210576C0F208012046D2
:1021A00000F012FBEDE6000010B540F2E004C2F2D0
:1021B0000004A06800F0F6FAA068042100284FF09F
:1021C000000008BF0321217010BD000010B540F2CF
:1021D000F00CC2F2000C4FF02C0E00FB0EC300FB03
:1021E0000EFE0024C3E90144C3E903445C61C3E972
:1021F0000744C3E909422CF80E401C7600F0E4FACB
:10220000002010BD2DE9F04F85B00D46044600F0CA
:1022100055FA0490204600F059FA00F003000390AC
:10222000204600F033FA40F2F001C2F200012C2205
:1022300004FB0217E90782461CBF0120387607F12C
:10224000180B381D4FF000094FF0000802900CE009
:10225000387800284FD04FF0000800BFB8F1000FC9
:102260004FF00108484600F08D8138780528F5D8F0
:10227000DFE810F0880106004A0064001F009500A6
:102280005FEA8A70EAD4387E0028E7D003980028F5
:1022900000F043810398022840F04681787E0028B0
:1022A00000F0398103203870002078764FF0010863
:1022B000D4E7387E0028CED0204600F0F7F9082871
:1022C00040F09F80002500BF204600F0E7F97969C3
:1022D00048550135082DF7D12046012100F082FA3A
:1022E00079697A6A204690478146002840F0A880A4
:1022F00038780428AFD1787E002800F029810225A3
:102300000120C0F208052EE15FEA8A705ED4387EB3
:1023100000285BD00398012858D1049810F04000A1
:1023200054D03969D7E9022008449042F86080F01F
:102330008F802046012100F06BF98FE75FEA8A70F9
:102340003FF58CAF387E00283FF488AF204600F080
:10235000ADF9804680B1C8F100064FF0FF3500BFEF
:10236000204600F09BF97968FA6811442944013548
:10237000721901324870F3D12046012100F032FA7F
:10238000D7E9020101EB08028242FA604CD21F2019
:1023900000F04CFA4FF000088BF8008099E05FEAFB
:1023A0008A703FF55BAF7878012840F09980002C67
:1023B0003FF454AF40F2051038801F2000F036FA89
:1023C00000208BF8000020460A21D8E0049800077E
:1023D0003FF444AFBE6A002038702EB1DDE903211E
:1023E00020465346B0478146B9F1000F3BD13878BB
:1023F000CDF804B0DDF808B0002844D0DDF804B012
:102400002CE72046012100F0EDF9B87E4FF00008DE
:1024100000280FBF0025052038800A251F2000F066
:1024200005FA8BF800808CE03B6A002038701BB105
:102430007968204698478146B9F1000F3FF408AF0C
:10244000B87E4FF00008E0B105200A2538808FE003
:10245000FB69002038701BB1796820469847814697
:10246000B9F1000F38D0B87E18B105200A253880A0
:1024700000E000251F2000F0D9F900208BF80000B3
:102480007BE0002574E0022038702046012100F036
:10249000B9F9DBF80C20DBE9011002448A4238BFAD
:1024A000114688420DD24D42461E00BFDBF80000A7
:1024B00030444178204600F09DF90136A8190130DA
:1024C000F4D11F2000F0B2F9DDF804B000208BF841
:1024D00000002046022152E0387800287FF4BEAE8A
:1024E000787E20B102250120C0F208050AE0B87EFE
:1024F0004FF400250221002818BF0120C0F2080176
:1025000018BF0D46387000261F207E7000F08EF92F
:102510008BF8006031E0039830B9B87E20B1042018
:1025200038704FF0010899E6B87E00280FBF0025EB
:10253000052038800A251F2000F078F900208BF84C
:1025400000002046294600F03FF94FF0010985E6DA
:10255000B87E4FF400250221002818BF0120C0F2E8
:10256000080118BF0D464FF00008387087F8018049
:102570001F2000F05BF98BF800802046294600F010
:1025800023F96BE680B205B0BDE8F08F2DE9F0418C
:1025900040F2F008C2F200082C2400FB04854FF042
:1025A000400CAE7E05F1040E00278EE88610022155
:1025B0004443EB610225002E08BF012100F028F8FA
:1025C000002008F80450BDE8F081000070B540F22A
:1025D000F00C0446C2F2000C2C2004FB00C5604342
:1025E00005F1040E00268EE8460001212CF80010AB
:1025F0001F202E612B62697600F018F90221C0F2CB
:10260000080120462E7600F0DFF8002070BD0000A3
:102610002DE9F0410D460121044600F0F3F8022DAA
:1026200005D0012D07D1204600F0A6F803E0204692
:10263000042100F0C9F840F2F000C2F200002C21A1
:1026400004FB0108D8F81020D8E9021002448A429D
:1026500038BF114688420DD208F104064F42451E8C
:10266000306828444178204600F0C4F801357819D4
:102670000130F5D11F2000F0D9F8002220460221B8
:1026800088F81820BDE8F04100F09EB840F2001133
:102690000001C4F2010108587047000040F28011A7
:1026A000C001C4F2010108587047000040F28C11CB
:1026B000C001C4F2010108587047000040F2041143
:1026C0000001C4F2010108587047000040F20811EF
:1026D0000001C4F2010108587047000040F24810A0
:1026E000C4F2010000687047F0B581B04EF20015E9
:1026F000CEF200050420C5F88000BFF34F8F40F2F2
:10270000EC06BFF36F8FC2F20006306808B101B06B
:10271000F0BD01203060FFF7E1FF044640070AD515
:1027200040F2E000C2F2000003210170002181604C
:10273000002000F037F80027F8B22146FFF762FDCD
:102740000137042FF8D124F0010000F06FF80020C9
:1027500030600420286001B0F0BD000040F28030FD
:10276000C4F20100016841F002010160016821F03A
:10277000020101607047000040F200110001C4F244
:1027800001010A5882F004020A50704740F2803179
:10279000C4F201010A6883B21A4322EA10400860B9
:1027A0007047000040F25011C4F201010860704708
:1027B00040F24011C4F201010A6883B21A4322EACE
:1027C000104008607047000040F2001C0001C4F295
:1027D000010C5CF800308AB21A4322EA11414CF82D
:1027E0000010704740F29012C001C4F20102115073
:1027F0007047000040F2C012C001C4F20102115043
:102800007047000040F2D012C001C4F20102115022
:102810007047000040F24C11C4F201010A6883B213
:102820001A4322EA104008607047000040F2481145
:10283000C4F2010108607047B0B500240325C4F25A
:102840000B0400BF20460F21FEF7EAFDC82000F070
:102850000BF820460F21FEF7DDFDC82000F004F83C
:10286000013DEFD1B0BD000040F2EC11C2F2000119
:102870000A6800BF0B689B1A8342FBD370470000B5
:1028800010B5FEF7F9FD0120FEF764FFFEF774FFB7
:102890000128FBD10220FEF7E5FD00200024FEF711
:1028A000CDFD4FF48070FEF7D3FDFEF7F5FF40F24B
:1028B0000000C2F20000006844F6D351C1F2620188
:1028C000A0FB01014FF0FF3000EB9110B4EB106F53
:1028D00018BF10BD4EF21001CEF2000148604EF656
:1028E0002350CEF20000E022027007208C600860C6
:1028F00010BD0000B0B584B04FF480000121012567
:10290000FEF750FF01AC2046FEF78EFD0F20ADF81C
:1029100004004FF48070ADF80C000020C4F20B00EE
:1029200021468DF806508DF80E50FEF7DDFC04B000
:10293000B0BD000070B588B08020C0F20010012149
:102940000125FEF72FFF05AC2046FEF76DFD0320A5
:102950008DF81E5048F20005ADF8140040F2023028
:10296000C4F203050026ADF81C0005F50820214639
:102970008DF81660FEF7B8FC28460021FFF710F826
:1029800001AC2046FFF77EF84FF4E1300190602063
:10299000CDE9020628462146FFF732F828460121F4
:1029A000FFF722F808B070BDB0B584B048F200045B
:1029B000C4F203040020552142A200BFA3699B0674
:1029C000FCD401302160115C1628F7D1002540F6B7
:1029D0000330ADF80E50ADF80E001020202102900B
:1029E000CDE9000104200121FEF7DCFE0DF10E000F
:1029F000FFF752F8552039A1A2699206FCD401359F
:102A00002060485D142DF7D10DF10E006946FFF7E7
:102A1000EFF90020552137A2A3699B06FCD40130B1
:102A20002160115C1728F7D11F20FFF7F3FEFFF795
:102A300029FA0020552135A2A3699B06FCD4013058
:102A40002160115C1428F7D1FFF742F94EF2001013
:102A5000CEF20000042101600020552131A200BF08
:102A6000A3699B06FCD401302160115C1328F7D1C7
:102A700040F2A1100025C2F2000001210122C4F29F
:102A80000B05FFF7E5F840F2EC110020C2F200015F
:102A90002A6882F001022A600A6800BF0B689B1A4C
:102AA000962BFBD301300328F2D10020552122A21E
:102AB000A3699B06FCD401302160115C0D28F7D17D
:102AC00004B0B0BD5553423A20496E697420737406
:102AD00061727465642E2E2E0D0A00005553423A21
:102AE00020425247496E697420646F6E652E0D0A4C
:102AF000000000005553423A2044657669636549F9
:102B00006E697420646F6E652E0D0A005553423A4B
:102B100020506F7765724F6E20646F6E652E0D0AC0
:102B2000000000005553423A2049525120656E6121
:102B3000626C65642E0D0A005553423A205265615D
:102B400064792E0D0A000000A6B0FFF799FEFFF78A
:102B5000F1FEFFF7CFFEFDF7F9FF40F20000C2F2F1
:102B60000000006844F6D355C1F26205A0FB0501E0
:102B70004FF0FF3000EB91110020B0EB116F0DD141
:102B80004EF21002CEF2000251604EF62351CEF208
:102B90000001E0230B7090600720106048F2000AEB
:102BA0004DF2C044C4F2030AC0F2010400F028FC54
:102BB0008FA000F04FFBFFF7F7FE92A000F04AFB5A
:102BC00040F2EC16C2F200063768D6F800B0306862
:102BD000C01BA0427CD244F2F869A0463819C0F666
:102BE000000905901EE0304601F052F80B4606AE93
:102BF00044F2474102463046C0F60001FDF71EFB95
:102C0000304600F027FB00F07FFB40F2EC16482C2A
:102C1000C2F200065CD00A20FFF726FE3068C01B17
:102C2000404555D2306841F28831A0EB0B00884214
:102C300014D330680599081AA0FB050177A08E0906
:102C400000F008FB304640F2EC16C2F2000600F03D
:102C5000B3FA77A000F0FEFAD6F800B0DAF8180060
:102C6000C006D8D4DAF8000000F0DF04482CD2D136
:102C700040F2F010C2F200000121017075A000F0D6
:102C8000E9FAFFF7D9FD79A000F0E4FA0120FEF798
:102C900059FA48F20001CCF27741064601F09BF860
:102CA0000028A0D199E84F00AC460690B9F818006A
:102CB000D9F81450ADF8300099F81A00079108922D
:102CC00009930A960B9565468DF8320006AE97E794
:102CD00040F2F010C2F200000078002874D044F2F4
:102CE0001470C0F60000016840F2F11405914168CB
:102CF00040F2A0180491816840F2E41B0391C1687E
:102D0000007C44F26947C2F20004C2F20008C2F239
:102D1000000B06AD4FF00009C0F6000702910190CC
:102D20001BE0304600F0B4FF0B4644F25741024628
:102D30002846C0F60001FDF781FA284600F08AFA1D
:102D4000284600F099FA40F2EC16C2F2000630680C
:102D5000CBF800000A20FFF787FDDAF81800C0065C
:102D600004D4DAF80000C0B200F08CF8207838B152
:102D7000207884F8009000F085F8384600F07CFA5E
:102D800098F800000028E5D03068DBF80010401A01
:102D900040F6B8318842DDD30120FEF7D3F948F27E
:102DA0000001CCF27741064601F015F80028B8D1B1
:102DB0000598069004980790039808900298099047
:102DC00001988DF82800B8E744F218400024C0F6B6
:102DD0000000C4F20B0400F03DFA00BF206880F050
:102DE000010020604FF4FA70FFF73EFDF6E700BFE8
:102DF00053797374656D20737461727465642E0DFC
:102E00000A00000057616974696E6720666F72205E
:102E10002748272E2E2E0D0A0000000054696D65EC
:102E20002072656D61696E696E673A20000000006E
:102E3000207365636F6E64732E2050726573732008
:102E400027482720746F20636F6E6E6563742E0DA4
:102E50000A0000000D0A5465726D696E616C206392
:102E60006F6E6E6563746564210D0A00494E4954A6
:102E700049414C2054454D5020524541443A0D0A99
:102E8000000000002DE9F041C2B0A0F17F0111F176
:102E90005F0F02D242B0BDE8F081FDF7BFF9C0B2CA
:102EA0003138232800F22181DFE810F024004E00A1
:102EB0003800D0001F011F011F011F011F011F014A
:102EC0001F011F011F011F011F011F01E8001F013A
:102ED0001F011F011F011F011F0149001F011F01C9
:102EE0001F015F001F011F011F011F011F011F01A3
:102EF0009900F90040F2E814C2F200042078B0FA18
:102F000080F0400920702178012000F0E1F921785B
:102F100044F23462C0F600029EA0A7E040F2EA1438
:102F2000C2F200042078B0FA80F0400920702178C5
:102F3000032000F0CDF9217882A287A096E042B06C
:102F4000BDE8F04100F0E0B940F2E914C2F200043B
:102F50002078B0FA80F0400920702178022000F03B
:102F6000B7F9217881A286A080E044F2D660C0F64D
:102F7000000000F06FF940F2EB1840F2EA1640F260
:102F8000E91740F2E8150024C2F200080120C2F25D
:102F90000006C2F20007C2F20005C4F20B0488F872
:102FA000000030703870287020460F21FEF738FA84
:102FB0004FF47A70FFF758FC44F26160C0F60000ED
:102FC00000F048F9002288F8002032703A7020465C
:102FD0000F212A7042B0BDE8F041FEF71BBA40F263
:102FE000E810C2F20000007844F2F264002840F2D7
:102FF000E910C2F20000C0F60004007844F2EE616D
:103000002246C0F6000108BF0A46002840F2EA1036
:10301000C2F200000078234608BF0B46002840F2A9
:10302000EB10C2F200000078254608BF0D460028CC
:1030300008BF0C4644F2676122AEC0F6000130467C
:10304000CDE90054FDF7FAF830465DE040F2EB14AC
:10305000C2F200042078B0FA80F040092070217894
:10306000042000F035F921782CA231A0002908BFF6
:10307000104642B0BDE8F04100F0ECB840F2A010BC
:10308000C2F200000178B1FA81F1490901700078BB
:1030900000283ED044F27550C0F60000E9E744F243
:1030A000CD50C0F6000000F0D5F80120FEF74AF838
:1030B00048F20001CCF27741044600F08CFEC8B91A
:1030C00044F2F860C0F6000090E88E000DF1080CA4
:1030D000D0E904658CE88E00018B807ECDE9066521
:1030E000ADF820108DF822000DE044F2E050C0F65B
:1030F0000000BEE7204600F0CBFD02460B462AA1A9
:1031000002A8FDF79BF802A800F0A4F842B0BDE8C1
:10311000F08144F21260C0F60000AAE74C45443446
:103120002028564434293A204F46460D0A00000014
:103130004C4544342028564434293A204F4E0D0A39
:10314000000000004C4544332028564433293A20DF
:103150004F46460D0A0000004C4544332028564493
:1031600033293A204F4E0D0A000000004C454432EE
:103170002028564432293A204F46460D0A000000C6
:103180004C4544322028564432293A204F4E0D0AED
:10319000000000004C4544312028564431293A2093
:1031A0004F4E0D0A0000000020205431203D202504
:1031B0002E316620430D0A0010B583B048F200019D
:1031C000C4F2030120B34CF6CD4C0023CCF6CC4C1A
:1031D000EE4600BFA0FB0C24E20802EB8204A0EB49
:1031E000440444F030040EF803400133092810462B
:1031F000F0D800BF581E1EF8002000BF8C69A4063E
:10320000FCD4012B03460A60F4DC03B010BD00BF00
:1032100088698006FCD43020086003B010BD00002F
:1032200044F2425C0109C0F6000C1CF8013048F27F
:103230000001C4F2030100BF8A699206FCD40B604E
:1032400000F00F001CF800008A699206FCD40860A8
:10325000704700000178002908BF704748F200025B
:10326000C4F2030293699B06FCD4116010F8011F9D
:103270000029F7D17047000070B50446007850B1BE
:10328000601E002182784D1C1AB101303F29294669
:10329000F8D315B91AE00025C5B120462946FEF736
:1032A0003FFDB0F5007F18BF70BD40F2EC16C2F2D2
:1032B000000600BF306800BF31688142FCD0204664
:1032C0002946FEF72DFDB0F5007FF3D070BD00005C
:1032D0000138C2B2032A88BF7047084606A151F8D8
:1032E0002210002840F20000C4F20B0018BFFEF7C5
:1032F00097B8FEF78FB800BF010000000200000081
:10330000040000000800000010B544F2D364C0F6C9
:1033100000042046FFF79EFF44F2A150C0F60000D3
:10332000FFF798FF44F20660C0F60000FFF792FF37
:1033300011A0FFF78FFF44F2B960C0F60000FFF75D
:1033400089FF44F24660C0F60000FFF783FF44F2B5
:103350005350C0F60000FFF77DFF0BA0FFF77AFF88
:1033600014A0FFF777FF1BA0FFF774FF2046BDE80E
:103370001040FFF76FBF00BF2020482F68202D208E
:1033800048656C700D0A00002020412F61202D201F
:10339000546F67676C65206175746F2D7265616429
:1033A0002028337320696E74657276616C290D0A6A
:1033B000000000002020312E2E34202D20546F6775
:1033C000676C65204C4544205644312E2E564436B9
:1033D0000D0A00002D2D2D2D2D2D2D2D2D2D2D2DBA
:1033E0002D2D2D2D2D2D2D2D2D2D2D2D2D2D2D2D0D
:1033F0002D2D2D2D2D2D2D2D2D2D2D2D0D0A00009A
:10340000B0B50024C4F20B0420460F21FEF702F8E9
:103410006420FFF729FA032520460121FEF700F872
:103420004620FFF721FA20460221FDF7F9FF46204A
:10343000FFF71AFA20460421FDF7F2FF4620FFF7B6
:1034400013FA20460821FDF7EBFF4620FFF70CFAA0
:1034500020460F21FDF7DEFF9620FFF705FA013D1C
:10346000DAD1B0BD5FEA400C08BF91F0000F4FEA1F
:103470008C234FEAC12243EA51514FEA1C5018BF36
:1034800000F5F0404FEA300018BF41F000415FEA1C
:103490006C5C00F02980BCF1FF3F08BF40F0804029
:1034A0007047130C06BF12044FF0100C4FF0000CC5
:1034B000130E04BF12020CF1080C130F04BF12010B
:1034C0000CF1040C930F04BF92000CF1020CD30F0B
:1034D00004BF52000CF1010C11464FF00002A0F1A4
:1034E0001F00A0EB0C00704711F0004F08BF7047A1
:1034F00031F000413FF4D5AF0B0C06BF09044FF08B
:10350000100C4FF0000C0B0E04BF09020CF1080C5C
:103510000B0F04BF09010CF1040C8B0F04BF8900D1
:103520000CF1020CCB0F04BF49000CF1010CCCF1E3
:10353000200322FA03F341EA030102FA0CF2A0EBA2
:103540000C0000F10100704723F07F4720F07F4C12
:1035500080EA030000F00040ACEB070303F57C5366
:1035600003F1FF032DE9804909B44FEA144324EA2B
:1035700003484FEA154B25EA0B4E0FF2042606EBE3
:1035800013273E7803FB0667C7F5000707FB06F61F
:103590004FEAD64606F102064FEA543707FB066C9F
:1035A000CCF1005C4FEA1C472CEA074C0CFB06F5FB
:1035B00007FB06F404EB15464FEA961649085FEA46
:1035C000320234BF00204FF000404FEAD13706FBF3
:1035D00007FC4FEA1C4C0CFB0BF7D21B03FB0CF750
:1035E00061EB07010CFB0EF7B0EB074072EB1742E3
:1035F0000CFB08F734BFA2EB0742B2EB074261EBCA
:1036000017414FEA0C444FEA910706FB07FC4FEACB
:103610001C4C0CFB0BF7B0EBC74072EB573203FBB3
:103620000CF734BFA2EBC742B2EBC74261EB573194
:103630000CFB0EF7B0EBC70072EB57720CFB08F7F0
:1036400034BFA2EBC702B2EBC70261EB57714FEA7E
:10365000816141EA92114FEA826242EA90124FEA96
:10366000806004EBCC04039F4FEAD13706FB07FCD4
:103670004FEA1C4C0CFB0BF7D21B03FB0CF761EB66
:1036800007010CFB0EF7B0EB074072EB17420CFB87
:1036900008F734BFA2EB0742B2EB074261EB1741D8
:1036A0004FEA8C5504EB9C244FEA910706FB07FC7C
:1036B0004FEA1C4C0CFB0BF7B0EBC74072EB5732D8
:1036C00003FB0CF734BFA2EBC742B2EBC74261EB7E
:1036D00057310CFB0EF7B0EBC70072EB57720CFBC7
:1036E00008F734BFA2EBC702B2EBC70261EB577118
:1036F0004FEA816141EA92114FEA826242EA9012F6
:103700004FEA806015EB4C2544F100044FEAD137B5
:1037100006FB07FC4FEA1C4C0CFB0BF7D21B03FB10
:103720000CF761EB07010CFB0EF7B0EB074072EBF7
:1037300017420CFB08F734BFA2EB0742B2EB07427B
:1037400061EB17414FEA813141EA92414FEA8232FF
:1037500042EA90424FEA80304FEA0C7615EB1C1596
:1037600044F1000448EA03434EEA0B484FF0000ED0
:10377000B2EB080C71EB030724BF624639464EEBEF
:103780000E0E4FF0000B0018524149414BEB0B0B52
:10379000B2EB080C71EB03077BF1000B24BF624610
:1037A00039464EEB0E0E4FF0000B001852414941C6
:1037B0004BEB0B0BB2EB080C71EB03077BF1000B2F
:1037C00024BF624639464EEB0E0E51EA020718BF7F
:1037D00046F0010616EB0E7655F1000254F1000199
:1037E00003D5BDE88901BDE80088BDE88901BDE8D1
:1037F0000048B619524141EB0101A3F101037047A2
:1038000080807F7E7D7C7B7A79787776767574731D
:10381000727171706F6E6E6D6C6C6B6A6A696868DC
:10382000676666656464636362616160605F5F5E72
:103830005E5D5D5C5C5B5B5A5A59595858575756E8
:10384000565555555454535352525251515050504D
:103850004F4F4F4E4E4D4D4D4C4C4C4B4B4B4A4A9F
:103860004A494949484848474747474646464545E3
:10387000454444444443434343424242424141411C
:103880009C46002B30D477002BD04FEA37071CB56D
:1038900003B44FF010004FF01001BAF1000F06D042
:1038A000BCF1000FDCBF40F0080040F008014FF011
:1038B00000000FBCBDE810400BF1010BBBF1010F84
:1038C00008BF5FEA170722BF12F1010211F10101DF
:1038D0004FF0004143F1000300F0004043EA0000D4
:1038E0007047F9D35708D0E746EA06464FEA16462E
:1038F00013F1400F1FDD13F1200FDFBF16430A46FF
:10390000002120335B42BED0C3F1200746EA0646C1
:103910004FEA164602FA07F746EA070622FA03F2CA
:10392000C3F1200701FA07F742EA070221FA03F17F
:103930004FF00003A7E746EA020646EA06464FEACA
:10394000164646EA0106BCBF46EA0646360C4FF06C
:1039500000034FF000024FF0000194E72DE9804C86
:1039600070B49A46934691E8380007C831EA400C93
:1039700048BF34EA430C03D5FFF7E6FDFFF780FFAD
:10398000F0BCBDE8008C2DE9804C70B49A4693469B
:1039900091E8380007C810F0804F08BF13F0804F3F
:1039A00003D100F005F8FFF76BFFF0BCBDE8008C19
:1039B00020F07F4723F07F4C80EA030000F00040B6
:1039C00007EB0C03A3F57C53A3F1FE0392F0000F69
:1039D00000F0B38095F0000F00F077802DE90149E9
:1039E0004FEA114021EA00484FEA144624EA06470C
:1039F00000FB06FC08FB06F607FB08F818EB064878
:103A00004CEB164C00FB07F718EB07484CEB174044
:103A10004FEA124B22EA0B4E4FEA154625EA0647BB
:103A20000BFB06FC0EFB06F607FB0EFE1EEB064E1E
:103A30004CEB164C0BFB07F71EEB074E4CEB174BF2
:103A400018EB0B0840F1000018EB0E0B58EB0008C8
:103A500040F100008F1A4FF000014FF000063CBF0C
:103A6000C943661B14BFB5EB040C00213CBFC9431E
:103A7000F61B4FEA174427EA04454FEA1C472CEA95
:103A8000074C04FB076205FB07F70CFB05F616EB7A
:103A9000074642EB174204FB0CFC16EB0C4642EBCC
:103AA0001C421BEB060658EB020241414EEA8E0E09
:103AB00046EA9E0601D5BDE80189B619524141EB9F
:103AC0000101A3F10103BDE801894FEA144524EA8D
:103AD00005464FEA114721EA074C05FB07F406FBB0
:103AE00007F70CFB06F111EB074144EB174405FB0C
:103AF0000CFC11EB0C4144EB1C444FEA124722EA48
:103B0000074C05FB07F206FB07F70CFB06F616EB66
:103B1000074642EB174205FB0CFC16EB0C4642EB4A
:103B20001C456A1854F1000148BF7047B61952414C
:103B300041EB0101A3F10103704795F0000F37D06D
:103B40004FEA114221EA02464FEA144724EA074CA1
:103B500002FB07F106FB07F70CFB06F414EB074426
:103B600041EB174102FB0CFC14EB0C4441EB1C41F4
:103B70004FEA154725EA074C02FB07F506FB07F756
:103B80000CFB06F616EB074645EB174502FB0CFC53
:103B900016EB0C4645EB1C42121951F1000148BFCF
:103BA0007047B619524141EB0101A3F1010370477F
:103BB0004FEA144524EA05464FEA114721EA074C2B
:103BC00005FB07F106FB07F70CFB06F212EB0742B9
:103BD00041EB174105FB0CFC12EB0C4251EB1C4175
:103BE0004FF0000648BF7047921841EB0101A3F166
:103BF00001037047490050EAC12018BF04204A0D54
:103C000018BF40F0010040F2FF72B2EB515F08BFF5
:103C100040F00200012808BF0520704730380A280C
:103C200001D20120704700207047000010B5002924
:103C30000AD00878002807D005487844FCF73EFFF2
:103C4000002801D0002010BD0248784410BD0000BB
:103C50000E0B0000060B000010B500290AD00878F2
:103C6000002807D005487844FCF728FF002801D039
:103C7000002010BD0248784410BD0000F20B000087
:103C8000EA0B00000808A0F500114FEA3101704767
:103C900043004FEAD30C4FEA3C0C43401FBF4007A0
:103CA0000CF1605113F0FE4F70471CF0006F03D110
:103CB0000CF00041002070470CF0004343EA5070C4
:103CC00040EACC0010B500F09AFA00BF0000009264
:103CD0004FEA0001FFF7D6BF4FF00041A1F50021E8
:103CE0004FF000007047000090EA010F48BF81F0DC
:103CF000004100F1D682421A3CBF801A89184FEA6F
:103D0000D052A2EBD1534FF07F4C1CEA410F18BFA9
:103D10009CEA026F00F03B804FF0004C4CEA002020
:103D20004CEA012121FA03FC10EB0C0C1ED202F12B
:103D3000FF325FEA1C2040EBC25038BF70471CF0D6
:103D40007F0F4FEA400C18BFBCF17F4F38BF704760
:103D5000C3F12003994008BF20F00100BCF17F4F60
:103D600038BF7047A0F1C04000F08FBA4FEA3C0066
:103D7000000A40EBC25028BF1CF0FF0F4FEA400C76
:103D8000E6D018BFBCF17F4F38BF7047EAE79CEA26
:103D9000026F05D010EA5C0F08BF00F000407047CA
:103DA00010B500F02CFA00BF64FBBE3E10B500F069
:103DB000F5F80CBF0120002010BD10B500F0EEF8A2
:103DC00014BF0120002010BD10B500F02FF98CBFEA
:103DD0000120002010BD10B500F028F92CBF0120F3
:103DE000002010BD10B500F055F994BF012000204F
:103DF00010BD10B500F04EF934BF0120002010BDF9
:103E0000401058BFC0F14040491058BFC1F1404177
:103E10008142EFF3008070474FF47F0C1CEAD01210
:103E20001EBF1CEAD11392EA0C0F93EA0C0F00F0AC
:103E3000858090EA010F48BF42F4807240F4000C84
:103E400041F400002CF07F4120F07F4000B5A2EB50
:103E5000030281420FF2081CACEB504E9EF800E0CA
:103E6000C0F100004FEA4E0E00FB0EFC38BF4900C7
:103E70004FEA2C1C0CFB0EF34FEACE1E0EEB635EDA
:103E80004FEA112C0EFB0CFC4FEAC1214FEA1C53E8
:103E900000FB031102F5FA024FEA112C0EFB0CFC99
:103EA0004FEA01314FEADC4C00FB0C1142EB22429D
:103EB000C14228BF09184CEB03335DF804EB10EB4B
:103EC000410143EBC250B2F57C0F38BF704729D592
:103ED00012F0F00F1CBF00F1C04000F0004070472E
:103EE000008182838485868788898B8C8D8E8F91D3
:103EF0009293959697999A9C9D9FA0A2A3A5A7A8F7
:103F0000AAACAEB0B2B3B5B7B9BCBEC0C2C5C7C922
:103F1000CCCED1D4D7D9DCDFE2E6E9ECF0F3F7FA86
:103F2000FE0000004FEA400C0CF1807CBCF17E4F9B
:103F300028BF7047B0F1C04000F0A7B90CEAD11318
:103F400090EA010F48BF42F48072624538BF634572
:103F500007D213F47F0F16D080EA010000F0004072
:103F6000704710B500F04BF9097EFC3E00F005B833
:103F700080EA010000F00040704780EA010000F094
:103F8000004000F082B912F47F0F04BF024870476E
:103F900080EA010000F079B90000C07F50EA010C0E
:103FA00000F113801CF5000F58BFBCF5000F01D4C1
:103FB0008842704707D710F5000F58BF11F5000F62
:103FC00015D488427047894270471CF5000F04D50C
:103FD000BCF5000FF7D5814270474FF0807C1CEB99
:103FE000400F38BF1CEB410F01D28142704710B522
:103FF00000F005F9922449004FF000504FF0805135
:10400000FFF7FEBEB0FA80F310FA03F2C3F19D038E
:104010000AD0D90501EB1220530638BF704700F1D2
:10402000010008BF20F001007047000050EA010CB9
:1040300000F113801CF5000F58BFBCF5000F01D430
:104040008842704707D710F5000F58BF11F5000FD1
:1040500015D488427047894270471CF5000F04D57B
:10406000BCF5000FF7D5814270474FF0807C1CEB08
:10407000400F38BF1CEB410F01D28142704710B591
:1040800000F0BDF8922449004FF080504FF00051ED
:10409000FFF7B6BE50EA010C00F113801CF5000FCB
:1040A00058BFBCF5000F01D48842704707D710F500
:1040B000000F58BF11F5000F15D488427047894290
:1040C00070471CF5000F04D5BCF5000FF7D58142F1
:1040D00070474FF0807C1CEB400F38BF1CEB410F4A
:1040E00001D28142704710B500F089F8922449004E
:1040F0004FF000504FF08051FFF782BE4FF47F0C1D
:104100001CEAD0121EBF1CEAD11392EA0C0F93EAEC
:104110000C0F00F0478090EA010F48BF42F4807214
:104120004FF0004C4CEA00204CEA012102EB030264
:10413000A0FB0113A2F50002002918BF43F0010300
:104140005B0028BF4FEA330342EB22425FEA132CA5
:104150004CEBC2502EBFBCEB436FB2F57C0F7047E7
:104160004FEA036CBCF1004F08BF20F00100B2F52C
:104170007C0F38BF70470BD582F0FF0212F5803FED
:10418000C8BF704700F1C040D8BF00F00040704782
:1041900000F5000C5FEA4C0C48BF7047B0F1C0401E
:1041A00000F073B80CEAD11390EA010F48BF42F453
:1041B0008072624538BF634504D280EA010000F096
:1041C0000040704710B500F01AF800BF8900013EAA
:1041D00000F007B800F009B85FEA410C5FEA1C6C18
:1041E00008D080EA010000F050B85FEA400C5FEAB6
:1041F0001C6CF6D14FF00040A0F5800070470EF126
:10420000020E2EF0030E5EF8044B244204D44FEA53
:104210004102B2F17F4F11D84FEA4003B3F17F4F13
:104220000CD80ED14FEAD07C0CEB4C0C0CF1020CEC
:10423000B2F17F4F08BF4CEBD17C04E04FF0080C8B
:1042400001E04FEAD17C0CEB4C0324FA03F404F0B8
:104250000704B4F1040C06D20EEB840CBDE8104048
:104260004CF0010C6047DFE80CF0070802024FF049
:104270000040A0F5800010BD0846420018BFD2F1F2
:10428000807288BF00F0004010BDFF2141EAD0508D
:10429000C005704790EA010F48BF81F000413FF52B
:1042A0002AAD421A04D882F00042A0EB0200114469
:1042B0004FEAD052A2EBD1534FF07F4C1CEA410F92
:1042C00018BF9CEA026F4AD04FF0004C4CEA002025
:1042D0004CEA012121FA03FCB0EB0C0C0FD412F0D4
:1042E000FE0F36D05FEA4C001DD5001240EBC250E5
:1042F00038BF70471CF03F0F18BF70470BE05FEAF4
:104300001C20A2F1010240EBC25038BF70471CF0E4
:104310007F0F18BF7047C3F12003994014BF401EA0
:1043200020F0010070474FEA1223800808BF704751
:10433000B0FA80FCA2EB0C02CCF1280C60FA0CF075
:1043400093EA122F04BF00EBC25070474FEAC370CC
:104350007047130A5FEADC1008BF7047F6E79CEA73
:10436000026F04D010EA5C0F08BF0020704710B540
:10437000FFF745FF40DFF63E81F000407047FCF755
:1043800005B9000002400000000000A0000000008D
:1043900005400000000000C8000000000C400000C4
:1043A0000000409C00000000194000000020BCBE3E
:1043B0000000000034400000BFC91B8E0000000454
:1043C000B5400000504BCFD06607E2CF010000009F
:1043D0006C4100003E8251AADFEEA73401000000CC
:1043E000D9420000DCB5A0E23A301F97FFFFFFFF83
:1043F000B4450000FD25A0C8E9A3C14FFFFFFFFFA2
:10440000FF3F00000000008000000000FF3F0000B0
:1044100000000080000000000D0A5B54494D454F2C
:1044200055545D204E6F20274827207265636569CB
:104430007665642E2053657373696F6E20636C6FAD
:104440007365642E0D0A0020205431203D20252E56
:10445000316620430D0A004155544F3A2054313DF6
:10446000252E316620430D0A004F4B0D0A004552A0
:10447000524F523A20525444203D2030206F722037
:1044800030784646464620E2869220636865636B34
:10449000205252454620616E6420776972696E67CA
:1044A000210D0A004D415833313836353A20496ED6
:1044B000697469616C697A696E672E2E2E0D0A0027
:1044C0004661756C7420666C61677320636C65610E
:1044D0007265642E0D0A005741524E494E473A20EC
:1044E000434F4E464947206D69736D61746368217F
:1044F00020436865636B20776972696E672E0D0AC9
:1045000000535543434553533A20434F4E46494782
:10451000207772697474656E20636F72726563745C
:104520006C792E0D0A004E4F0059455300526561BB
:104530006420434F4E464947206261636B3A203006
:1045400078003031323334353637383941424344DC
:104550004546002020542F74202D20526561642090
:1045600074656D706572617475726520286F6E6315
:1045700065290D0A004155544F2D524541442054A0
:10458000454D50455241545552453A20454E4142C1
:104590004C454420286576657279203373290D0ACD
:1045A000002D2D2D2D2D2D2D2D2D2D204C45442034
:1045B000262053454E534F5220434F4E54524F4C9A
:1045C000202D2D2D2D2D2D2D2D2D0D0A0054454D39
:1045D000503A2052656164696E672E2E2E0D0A00D6
:1045E000556E6B6E6F776E20636F6D6D616E642EAE
:1045F00020547970652027482720666F72206865EF
:104600006C702E0D0A00436F6D6D616E64733A0D10
:104610000A004155544F2D524541442054454D50B8
:10462000455241545552453A2044495341424C4524
:10463000440D0A004C4544312028564431293A2083
:104640004F46460D0A0020204C2F6C202D20566529
:1046500072696679204C4544733A204F4E202D3EB6
:10466000204F46460D0A005374617475733A0D0A63
:1046700020204C4544312028564431293A202573C6
:104680000D0A20204C4544322028564432293A2035
:1046900025730D0A20204C454433202856443329E5
:1046A0003A2025730D0A20204C45443420285644D6
:1046B00034293A2025730D0A002020532F73202D12
:1046C0002053686F772073797374656D20737461FC
:1046D0007475730D0A00566572696679204C4544FD
:1046E000733A20414C4C204F4E2E2E2E20004F4628
:1046F00046004F4E0000000020205431203D204550
:1047000052524F5220286E6F2073656E736F72295C
:104710000D0A00004155544F3A2054313D45525244
:104720004F520D0A000000007848000800000020E9
:104730006000000024010008D84800086000002044
:104740009807000044010008100100004300000029
:10475000F8FFFFFF004040404040404040404141A2
:104760004141414040404040404040404040404046
:1047700040404040400502020202020202020202E0
:1047800002020202022020202020202020202002DD
:10479000020202020202909090909090101010106D
:1047A0001010101010101010101010101010101009
:1047B000020202020202888888888888080808089D
:1047C0000808080808080808080808080808080869
:1047D0000202020240000000000000000000000091
:1047E00000000000000000000000000000000000C9
:1047F00000000000000000000000000000000000B9
:1048000000000000000000000000000000000000A8
:104810000000000000000000000000000000000098
:104820000000000000000000000000000000000088
:104830000000000000000000000000000000000078
:104840000000000000000000000000000000000068
:1048500000000000000000001C00000043000000F9
:10486000F8FFFFFF0C0000000E0000000F0000002A
:104870002E0000000000000000127A000902430030
:104880000201008032090400000102020100052437
:10489000001001052401000104240206052406007D
:1048A000010705820340000209040100020A00001A
:1048B00000070581024000000705030240000012C6
:1048C00001100102000040830425F10000000000F7
:0848D0000100000000000000DF
:04000005080000C12E
:00000001FF
